:100000000C94F2050C9400000C9400000C94000079
:100010000C9400000C9400000C9400000C94000060
:100020000C9400000C9400000C9400000C94000050
:100030000C94BB060C9400000C9400000C9400007F
:100040000C9477060C9400000C9400000C940000B3
:100050000C9400000C9400000C9400000C94000020
:100060000C9400000C9400000C9400000C94000010
:100070000C9400000C9400000C9400000C94000000
:100080000C9400000C9400000C940000050720A3C1
:1000900000000000000000040404040400040A0A34
:1000A0000A000000000A0A1F0A1F0A0A041E050EA1
:1000B000140F040313080402191806090502150990
:1000C00016060402000000000804020202040802EE
:1000D000040808080402000A041F040A00000404BB
:1000E0001F040400000000000604020000001F00BE
:1000F00000000000000006060000100804020100D5
:100100000E11191513110E0406040404040E0E1129
:10011000100804021F1F08040810110E080C0A0919
:100120001F08081F010F1010110E0C02010F1111F2
:100130000E1F1008040202020E11110E11110E0EF4
:1001400011111E100806000606000606000006062D
:10015000000604021008040204081000001F001F1B
:100160000000010204080402010E1110080400043A
:100170000E11101615150E0E1111111F11110F1160
:10018000110F11110F0E11010101110E07091111AB
:100190001109071F01010F01011F1F0101070101C3
:1001A000010E11010119110E1111111F1111110E62
:1001B00004040404040E1C080808080906110905B3
:1001C000030509110101010101011F111B15111185
:1001D0001111111113151911110E11111111110E07
:1001E0000F11110F0101010E1111111509160F1137
:1001F000110F0509111E01010E10100F1F04040438
:100200000404041111111111110E11111111110A0F
:100210000411111115151B1111110A040A111111E4
:10022000110A040404041F10080402011F1C040422
:100230000404041C00010204081000070404040460
:100240000407040A11000000000000000000001F65
:100250000204080000000000000E101E111E010123
:100260000D1311110F00000E0101110E10101619BF
:1002700011111E00000E111F010E0C1202070202C6
:100280000200001E111E100C01010D1311111104AA
:1002900000060404040E08000C08080906020212F5
:1002A0000A060A120604040404040E00000B1515C5
:1002B000111100000D1311111100000E1111110E7A
:1002C00000000F110F0101000016191E1010000090
:1002D0000D1301010100000E010E100F02020702B2
:1002E00002120C0000111111191600001111110A4F
:1002F000040000111115150A0000110A040A11006A
:100300000011111E100E00001F0804021F08040433
:100310000204040804040404040404020404080499
:100320000402021508000000001F11111111111F15
:10033000000000000000000E1111111F11111F110B
:10034000010F11110F0F11110F11110F1F110101C9
:100350000101011E14141412111F1F01010F0101CC
:100360001F1515150E1515150F10100E10100F1165
:100370001119151311110A04111915131111090579
:10038000030509111E141414141512111B1515114F
:1003900011111111111F1111110E11111111110E45
:1003A0001F1111111111110F11110F0101010E1166
:1003B000010101110E1F0404040404041111110AA7
:1003C000040201040E1515150E0411110A040A1178
:1003D000111111111111111F1111111E10101015F1
:1003E00015151515151F1515151515151F030202E1
:1003F0000E12120E111111131515130202020E1214
:10040000120E0E11101C10110E09151517151509D5
:100410001E11111E14121100000E101E111E1806BE
:10042000010F11110E0000070907090700001F1135
:1004300001010100001E1412111F00000E111F0106
:100440000E000015150E151500000F100C100F00F2
:100450000011191513110A041111191513000009BF
:100460000503050900001E141415120000111B15C8
:100470001111000011111F111100000E1111110EA8
:1004800000001F1111111100000F110F01010000D8
:100490000E0101110E00001F0404040400001111DC
:1004A0001E100E0000040E15150E0000110A040A9D
:1004B000110000111111111F000011111E10100068
:1004C00000151515151F0000151515151F00000343
:1004D000020E120E0000111117191700000101077A
:1004E000090700000E111C110E000009151715094F
:1004F00000001E111E141204150A110A1504000929
:100500001600091600000F000C003800FE01FF0362
:10051000FF07E10FC07FE03FF11FFF0FFF07FE0362
:1005200078001500140000001CE0FF1FF8FF1F3CBE
:10053000001C0E001C06001C731E1C739E1F739F64
:100540001FE3811D038F01F39D01F39D01F6DC0084
:1005500006C0001C7000783800F83F00983300F89F
:100560003F001500140000001CE0FF1FF8FF1F3CB7
:10057000001C0E001CC6011CE3011CE39C1FC3BE33
:100580001F83BF1DFB8301FB8E01738E0106CF000D
:1005900006C7001C7000783800F83F00983300F858
:1005A0003F001500140000001CE0FF1FF8FF1F3C77
:1005B000001C0E001C06071C230F1C338F1F7B839F
:1005C0001FFB9F1D33BD0103B901E39901E6C10083
:1005D000C6C1001C7000783800F83F00983300F85E
:1005E0003F0014001300200000300F00F83F00F817
:1005F000F00030C001208001030000030000030070
:100600000303800703C00F030003030003068003F6
:100610000E80015CC00178F000703E00780E000092
:1006200015001400000E00001F00001B00803100A8
:10063000803100C06000E0EE0060CE00308E0130FE
:100640008E01180E03180E030C0E060C040606008D
:100650000C060E0C030E18030018FFFF1FFFFF1FF0
:1006600011001400000100000100600D00C8270007
:100670000821000BA1010EE1003C790067CD01C00B
:100680000700C0070067CD013C79000EE1000BA117
:1006900001882300C82700600D0000010000010050
:1006A000000103070F1F3F7FFF0080908898000024
:1006B0000005090512051B0524052D053605410514
:1006C0004C05570562056D05780583058E0599056E
:1006D000A405AF05B905C405CF05DA05E505F005A4
:1006E000FB05020609061006150621062A063E0627
:1006F00047065906670679068B06320005000F008B
:100700000300000269646C6520202020007374617E
:100710007274696E670068656174696E6720007045
:1007200072652D626C6F7700626C6F7732202020CB
:1007300000636F6F6C696E6720006E6F6E652020BE
:100740002020202000626C6F77696E676F666600FC
:10075000626C6F7750726543686B00626C6F77698B
:100760006E67202020007472616E73204F4E20202F
:1007700000636C617054737443686B00636C6170E8
:10078000616E5072655700636C6170616E207772A4
:100790006B007472616E73666F726D7200696F6E5A
:1007A0002074657374202000696F6E20776F726B00
:1007B000202000206E6F206D6F64656C0020205536
:1007C0004B203130332020002020554B2032303355
:1007D0002020002020554B203330332020004C4176
:1007E0004E206D6173746572004C414E20736C61D4
:1007F000766531004C414E20736C61766532004E57
:100800006F6E6520200057696E7465720053756DB8
:100810006D6572004E6F6E65005761746572206C75
:100820006576656C004F7665726865617400466C2C
:10083000616D65206465746563746F72207465739F
:1008400074004E6F20666C616D6500496F6E2064A8
:1008500065746563746F722074657374004E6F20E5
:10086000696F6E697A6174696F6E004169722064A4
:1008700065746563746F7220746573740041697286
:10088000206465746563746F7220776F726B0054B7
:100890006865726D6973746F72206661696C7572D8
:1008A000650024245F38C328ADBA0950D33DD6561D
:1008B0001C3FCDCC4CBDA7413A3811D5A5BAD57750
:1008C0007E3DC0E73F3F01002573002025336400D3
:1008D00025332E3066003E002000C31000000000CB
:1008E00000000D078E07FF0000000000000005005B
:1008F00000009E0603050000006F0FEA0E000000D6
:10090000008307FFFF00000500000063000000A750
:100910000604010000006F0FEA0E00003D078D077E
:10092000FF0000000000000002000000B206030506
:100930000000006F0FEA0E000000008107FFFF00BB
:1009400000020000000A000000BD060401000000D3
:100950006F0FEA0E000000008507FFFF0000010096
:10096000000063000000C80604010000006F0FEAE9
:100970000E000000008707FFFF0000010000006379
:10098000000000D60604010000006F0FEA0E000010
:100990002F079007FF000000000000000600000085
:1009A000E30603050408070083ABAC2D83BCABACA6
:1009B000008EA1A4B1A6B3BD20A5AF0083B1A6ADA2
:1009C000C020A4AFA5A10084A9B2B3A6B1A6A8A9CE
:1009D000B20083ABAC20AEA1B2AFB220B0B1A900DF
:1009E00084A9B2B32E20AEA1B2AFB2A1008DAFA543
:1009F000A6ACBD00EA0625332E30660025332E3026
:100A0000662D3E25640025730046414E5F4F4E2003
:100A10000046414E5F4F464600434C315F4F4E20EB
:100A200000434C315F4F464600434C325F4F4E20EF
:100A300000434C325F4F4646008FB9A9A2ABA120BC
:100A4000256400002D4E414E000001002D4E414E08
:100A500000494E46000002000600AE0609000005EF
:100A60000407090009050D0709001205160709000A
:100A70001B051F0709002405280709002D0531075C
:100A80000C000D07B0060B0036053A070B004105B8
:100A900045070B004C0550070B0057055B070B0083
:100AA000620566070B006D0571070B0078057C0772
:100AB0000B00830587070B008E0592070B00990535
:100AC0009D070B00A405A80716001907BC060A001D
:100AD000AF05B3070B00B905BD070B00C405C80778
:100AE0000B00CF05D3070B00DA05DE070B00E50589
:100AF000E9070B00F005F4070E002F07D2060700E8
:100B0000FB05FF07070002060608070009060D0897
:100B100006003D07E0060500100614080C00150647
:100B2000190809002106250814002A062E080900C4
:100B30003E064208120047064B080E0059065D08A3
:100B4000120067066B08120079067D0813008B06F9
:100B50008F0814004307E6060A00AB07FA060400F4
:100B6000C707A2080400CB07A6080400CF07AA08FD
:100B70000400D307AE080400D707B2080400DB075F
:100B8000B6080400DF07BA080400E307BE08040043
:100B9000E707C2080100F107C60809009E06A80978
:100BA0000B00A706B1090B00B206BC090B00BD067D
:100BB000C7090E00C806D2090D00D606E0090700D5
:100BC000E306ED09CA000408DA0803009307A40944
:100BD0000100EA06FB090200E108F409010002092C
:100BE0004A0A0000F894EE27ECBBF1E0F5BFE5BF40
:100BF000E0936C008DE0A2E0BB27ED938A95E9F7C6
:100C000080E090E1A0E0B1E0ED930197E9F7E6E53F
:100C1000FAE085919591009761F0A591B5910590C5
:100C20001590BF01F00105900D920197E1F7FB01CE
:100C3000F0CFEFEFEDBFE0E1EEBFC0E0D5E00C9408
:100C4000DD06ECE8F0E0E883F983E0E0EA83EB839B
:100C5000EC83ED83DE010E9477134CC1EFEFEABB1A
:100C6000E0E0EBBBEFEDE4BBE5B3E161E5BBE0E069
:100C7000E2B9E3B9EFEFE1BBE0E0E2BBE093610092
:100C8000E0936200E7BBE0E8E8BBE0E0E0936400EB
:100C9000E8E1E09365000895EEB5E860EEBDE7B7E2
:100CA000E061E7BFE0E0F0E8FBBDEABDEEB5E4607F
:100CB000EEBDE0E0E0BFE3E0E3BFE6E0E2BFE0E09E
:100CC000E1BFE7B7E160E7BF0895E0E0EBB9E8E135
:100CD000EAB9E6E0E0939500E0E0E0939000E3E31A
:100CE000E9B9E8E0E9B908950E94542208956A93A9
:100CF0007A938A939A93AA93BA93EA93FA93EFB763
:100D0000EA93E6E0E2BFA1EAB7E00E945D22069B1B
:100D10000CC00E945422E0930807F09309076093E7
:100D20000A0770930B07E1E019C0E0910C07E0306F
:100D3000B9F0A0910807B091090780910A07909136
:100D40000B070E9454220E949A27E536A0E0FA077A
:100D5000A0E06A07A0E07A0718F0E0E0E0930C0753
:100D6000E991EFBFF991E991B991A991999189918F
:100D70007991699118950A921A92FA926A937A93E4
:100D80008A939A93AA93BA93EA93FA93EFB7EA9362
:100D90000E94810A0E94DA0A0E94550BE991EFBF76
:100DA000F991E991B991A991999189917991699173
:100DB000F990199009901895089526974FDF85DFCF
:100DC00078940E947D0A68DFA8ECB0E00E94AE2A09
:100DD000FE01A6E00E94B02834DFA8ECB0E00E943B
:100DE000AE2A0E94741316D00E94D810E5DF0E942C
:100DF000001142D129D3E1D20E94C912F7CFFFCF0F
:100E0000929893989498969897980E9466220E9438
:100E10006B2208950E947422E091C207E03031F005
:100E2000EBEAF7E00E9480220E947422E091C10761
:100E3000E0938F07E091B707F091B807E09383073D
:100E4000F0938407E091BB07F091BC07E09385071E
:100E5000F0938607E091BD07F091BE07E093870706
:100E6000F0938807E091B907F091BA07E093810702
:100E7000F0938207E091BF07E0938D07E091C007F0
:100E8000E0939007E0E0F0E060EA70E40E948A22DC
:100E9000E3E3F3E363E070E4E0935D07F0935E0760
:100EA00060935F0770936007A0915D07B0915E0744
:100EB00080915F0790916007E0E0F0EC6FE774E4E9
:100EC0000E94932208950E94AB281A931D81A0913D
:100ED00092071A1731F40E949E2219F4E0E0E09381
:100EE00092070E949E2221F010939207E1E001C038
:100EF000E0E0188126960895E1E0EA93E0B1E87019
:100F00000E94D9270E94A52209F00895E2E0EA9301
:100F1000E0B1E0720E94A52209F00895E9E0EA93A9
:100F20000E94B022E0E0F0E068E871E40E948E2ABE
:100F300068F00E94B022E0E0F0E06EEB72E40E9404
:100F40008E2A11F008F002C0E0E001C0E1E0FF27C6
:100F500066277727DF01CB01B6DFE03009F008957F
:100F6000E0918E07F0E0309709F485C0E130A0E011
:100F7000FA0709F03FC00E94B922D9F1E130A0E0A0
:100F8000FA0769F40E94BE2221F0E330A0E0FA07DC
:100F900029F4079B03C0E3E0E09392072AC0E23004
:100FA000A0E0FA0731F50E94BE2221F0E130A0E076
:100FB000FA0751F4069B02C0E7E055C0049903C04C
:100FC000E5E0E093920715C0E230A0E0FA0731F4C3
:100FD000049903C0E5E0E09392070BC0E330A0E082
:100FE000FA0739F4069B3EC0049903C0E5E0E0939C
:100FF000920741C0E230A0E0FA07C9F40E94B9228A
:10100000A9F0E130A0E0FA0731F4079903C0E4E069
:10101000E09392070BC0E230A0E0FA0739F4069B98
:1010200021C0049B03C0E6E0E093920724C0E330B4
:10103000A0E0FA0701F1E430A0E0FA07E1F40E9431
:10104000B922C9F0E130A0E0FA0731F4079B03C0F0
:10105000E4E0E09392070FC0E230A0E0FA0759F411
:10106000069904C0E8E0E09392070895049903C04C
:10107000E6E0E093920708953FDFE0919207E030C9
:1010800089F0A0919207A13021F0A23011F0A9308F
:1010900009F403C0E0E0E0938F07E0E0E0938E07FF
:1010A000E0939107E0918E07F0E03097B9F4A8DE65
:1010B000A0918F07A23089F40E94C3220E94C82207
:1010C0000E94CF2238F4E1E0E0938E07E0E0E09365
:1010D000910703C0E5E0E0938E0759C1E130A0E03D
:1010E000FA0709F0B1C0A0918F07A23009F0A8C09B
:1010F0000E94B0220E94C3220E94CF2208F09CC00E
:101100000E94B92221F4E2E0E0938E0794C0E1301E
:10111000A0E0FA0759F50E94BE2239F40E94D622B7
:10112000E3E0E0939107939A20C0E330A0E0FA0750
:1011300059F40E94D9220E94E82228F0929A949AA7
:10114000E4E00E94F02211C0E430A0E0FA0769F464
:101150000E94D9220E94F32228F4079B02C00E9419
:10116000FB2203C0E4E0E093920765C0E230A0E018
:10117000FA0709F056C00E94BE2231F40E94D6221E
:10118000E1E0E09391074CC0E130A0E0FA0789F478
:101190000E94D922AD32E1E0BE07E0E08E07E0E038
:1011A0009E0730F0E2E0E0939107939A0E94D622E6
:1011B00037C0E230A0E0FA0771F40E94D922A938C2
:1011C000E3E1BE07E0E08E07E0E09E0718F0E3E011
:1011D0000E94F02225C0E330A0E0FA0759F40E94F3
:1011E000D9220E94E82228F0929A969AE4E00E947E
:1011F000F02216C0E430A0E0FA0791F40E94D92250
:101200000E94F32250F4069903C0E8E0E0939207AD
:10121000049902C00E94FB2203C0E6E0E09392071B
:101220000AC0E330A0E0FA0731F4979A0E94D62270
:10123000E2E0E0938E0703C0E5E0E0938E0703C091
:10124000E0E0E0938E07A3C0E230A0E0FA0709F0E7
:1012500049C00E94B92221F0E130A0E0FA0709F468
:1012600004C0E230A0E0FA0709F404C0E430A0E0D2
:10127000FA0709F404C0E530A0E0FA0709F404C055
:10128000E630A0E0FA07B9F4A0918F07A23069F424
:101290000E94B0220E94C3220E94CF2228F0E3E0E5
:1012A0000E9403230E94062305C0E3E00E9403235B
:1012B0000E94062316C0E330A0E0FA0791F4A09143
:1012C0008F07A23059F40E94B0220E94C3220E94CC
:1012D000CF2218F0E5E0E0938E0703C0E0E0E09352
:1012E0008E0755C0E330A0E0FA0731F50E94B9221D
:1012F00021F0E130A0E0FA0709F404C0E230A0E0F8
:10130000FA0709F404C0E430A0E0FA0709F404C0C5
:10131000E530A0E0FA0709F404C0E630A0E0FA07DF
:1013200051F40E9410230E94152328F0E4E00E944B
:1013300003230E9406232BC0E430A0E0FA0781F4C7
:101340000E941023A136EAEEBE07E0E08E07E0E03F
:101350009E0728F00E94D622E5E0E0938E0717C092
:10136000E530A0E0FA0799F44BDDA0918F07A23099
:1013700059F40E94C3220E94C8220E94CF2218F46E
:10138000E1E0E0938E0703C0E0E0E0938E0708956C
:10139000E0918E07E03019F4E0E0E0939207E2E09C
:1013A00001C0E0E0E0938F070895E0918F07E030FF
:1013B00011F4EEDF01C0F5DF0895A0918F07E091F1
:1013C000C107EA1711F5A0918307B0918407E09156
:1013D000B707F091B807EA17FB07B9F4A0918107A6
:1013E000B0918207E091B907F091BA07EA17FB07BD
:1013F00061F4A0918D07E091BF07EA1731F4A09145
:101400009007E091C007EA17F1F0E0918F07E093B1
:10141000C1070E94C322E093B707F093B807E09199
:101420008107F0918207E093B907F093BA07E09142
:101430008D07E093BF07E0919007E093C007E7EBCB
:10144000F7E00E9480220895E0918D07F0E0309748
:1014500021F0E230A0E0FA0769F4E0919207E03071
:1014600021F0A0919207A13009F402C0959A01C021
:10147000959842C0E130A0E0FA07F1F5E0919207BB
:10148000E03011F0959A38C02297A0918107B09171
:101490008207E0918507F0918607EA17FB072CF495
:1014A000E0918107F091820704C0E0918507F091F7
:1014B0008607E883F9830E94C322A881B981EA1BC9
:1014C000FB0B0E94B0220E94CF2209F008F401C059
:1014D000959A0E94C322A881B981EA1BFB0BA091B7
:1014E0008707B0918807EA1BFB0B0E94B0220E947D
:1014F000CF2208F4959822960895E6B1E768E6B9F8
:101500000895E0E0E7B9369A3699FECFE4B1F5B137
:10151000E0935707F09358070E941D23A3E3B3E31A
:1015200083E090E40E949322A0917D07B0917E0712
:1015300080917F0790918007E0E0F0EC6FE774E422
:101540000E94FC290E948A22369808950E94AB28A6
:101550001A930A930E891F89F801AA89BB898C897D
:101560009D890E941D230E94FC29AE85BF85888924
:1015700099890E9422237F936F93FF93EF93F80141
:101580000E942B230E941D230E94FC29AF91BF9132
:101590008F919F910E94AD290E9430230E942223A7
:1015A000AA81BB818C819D810E94AD29198108810E
:1015B0000C94430E2497E1E0E7B9369A3699FECFB2
:1015C000E4B1F5B1E0935907F0935A070E9435232F
:1015D000E0915907F0915A07FA93EA93E091C7070F
:1015E000F091C8076091C9077091CA070E94A628A8
:1015F000E091CF07F091D0076091D1077091D207A9
:101600000E94A628E091CB07F091CC076091CD070E
:101610007091CE070E94A628E091D307F091D407DD
:101620006091D5077091D6070E94A628A091D70790
:10163000B091D8078091D9079091DA0787DFE093BE
:101640007507F093760760937707709378070E9489
:101650004023E0917507F0917607609177077091CC
:1016600078070E944923A0E8B7E182E499E40E9448
:10167000FC29E0936D07F0936E0760936F077093FA
:101680007007A0916D07B0916E0780916F079091E0
:1016900070070E945623E0936507F09366076093F6
:1016A000670770936807369803C12497E2E0E7B9AB
:1016B000369A3699FECFE4B1F5B1E0935B07F0932B
:1016C0005C070E943523E0915B07F0915C07FA9379
:1016D000EA93E091DB07F091DC076091DD07709100
:1016E000DE070E94A628E091E307F091E4076091ED
:1016F000E5077091E6070E94A628E091DF07F091C8
:10170000E0076091E1077091E2070E94A628E0914E
:10171000E707F091E8076091E9077091EA070E94F6
:10172000A628A091EB07B091EC078091ED0790916E
:10173000EE070CDFE0937907F0937A0760937B075D
:1017400070937C070E944023E0917907F0917A071B
:1017500060917B0770917C070E944923A0E9B0EA61
:1017600082EC96E40E94FC29E0937107F0937207E3
:101770006093730770937407A0917107B09172071B
:1017800080917307909174070E945623E093690734
:10179000F0936A0760936B0770936C07369888C064
:1017A0000E9487233901D3011A960E947C28D30115
:1017B00016960E9481280E948827269608950E94E6
:1017C00081279D0100E010E0F801E20FF31FE081A6
:1017D000E03019F00F5F1F4FF7CFF801A6E0B0E03F
:1017E0000E940C280E94882763C0BA93AA931A9378
:1017F0000A93AA81BB811A960E9472288F01EA81FE
:10180000FB81E28DF0E0309709F450C0E130A0E0B8
:10181000FA0719F40E948D2349C0E230A0E0FA07CC
:1018200019F40E948D2342C0E430A0E0FA0711F4BD
:10183000D80135C0E630A0E0FA0719F40E949423DD
:1018400035C0E330A0E0FA0779F4EA81FB810E9419
:101850009D2349F4EA81FB81A285B385EC91AA819D
:10186000BB811C96EC9322C0E530A0E0FA0711F48E
:10187000D80115C0E730A0E0FA0719F40E949423BC
:1018800015C0E830A0E0FA0719F40E9494230EC0B6
:10189000E930A0E0FA0751F4AA81BB811A96ED91D4
:1018A000FD91AA81BB811C96ED93FC93198108815F
:1018B000249608956697EAE0E883E0E0E9830E94D1
:1018C0007F27062C072809F4DCC10E94A2230E946E
:1018D0002428A3E0B0E080E090E00E94E6270E9488
:1018E000AC230E94B12321F40E94C02309F4BDC09F
:1018F000E0E0E093FB06EA93EF81EA93E0E8EA9305
:10190000E8E1EA93A0E00E94A41900E010E00330AF
:10191000E0E01E070CF0A5C0F8010E94C2270E945B
:10192000C723F8010E94CD230E94D4270E94952747
:101930000E94D2230E94D723E60FF71FE88FF98F6A
:101940000E94B12319F40E94C02399F0D30112968A
:101950000E947C280E94E3230E94F12808F081C0A5
:10196000E7E0EA930E94E823AC8DBD8D58960E9473
:10197000EE230E94D7230E94F92309F46FC00E942E
:1019800001240E940A2409F466C0E130A0E0FA07AD
:1019900019F40E9419245BC0E230A0E0FA0731F488
:1019A0000E942824EC910E94CE2751C0E430A0E090
:1019B000FA0739F40E9428240E9472280E94D42732
:1019C00046C0E630A0E0FA0729F40E9428240E94CD
:1019D00076283DC0E330A0E0FA0791F4E88DF98D58
:1019E0000E949D2331F02A930E94E8230E94332411
:1019F00002C00E9445240E94A6280E9454242BC0A5
:101A0000E530A0E0FA0719F40E9428241CC0E73052
:101A1000A0E0FA0729F40E9428240E94762817C023
:101A2000E830A0E0FA0729F40E9459240E947628A1
:101A30000EC0E930A0E0FA0771F42A930E94E8236F
:101A4000AC8DBD8D1A96ED91FD91662777270E948A
:101A5000A6280E945424A88DB98DC7DE0F5F1F4FA2
:101A600056CF0E9464240E9469240E94A2230E94EF
:101A70005428EC8BFD8B6E8B7F8BE091F107F091FE
:101A8000F2076091F3077091F407AC89BD898E89E4
:101A90009F890E94EC28F1F00E947224A091F10726
:101AA000B091F207E8E00E940628AE81BF81EA0FFC
:101AB000FB1FEA8FFB8FE0E0EA934A93E6EDF8E044
:101AC0000E947824E0E0EA93EB8DEA93E8EDF8E0F9
:101AD0000E9478240E947F24AC89BD898E899F89C9
:101AE0000E949527E887F9876A877B870E9484246C
:101AF0000E94F92309F4B1C00E948424E60FF71F65
:101B0000E88FF98F0E9401240E9472240E940A2407
:101B100009F4A0C0E130A0E0FA0759F40E94902433
:101B2000F0E0EA17FB0721F00E9419240E949B2491
:101B300091C0E230A0E0FA0781F40E949024F0E026
:101B4000E7FDFFEFEA17FB0739F00E942824EC912C
:101B50000E94CE270E949B247DC0E430A0E0FA07BB
:101B6000A9F40E949E2489F00E942824ED91FD9101
:101B70000E94D4270E949B240E94AB24ED91FD91EA
:101B8000A88DB98D1C96ED93FC9364C0E630A0E05F
:101B9000FA0741F40E94B02421F00E9428240E94F8
:101BA000BE2458C0E330A0E0FA07D1F4E88DF98DE7
:101BB00004840E94AB24EC91E01589F0E88DF98D46
:101BC0000E949D2331F02A930E94E8230E9433242F
:101BD00002C00E9445240E94A6280E9454243AC0B4
:101BE000E530A0E0FA0741F40E949E2421F00E9413
:101BF00028240E94EE232EC0E730A0E0FA0741F42B
:101C00000E94B02421F00E9428240E94BE2422C0F9
:101C1000E830A0E0FA0741F40E94B02421F00E94CD
:101C200059240E94BE2416C0E930A0E0FA0791F4BE
:101C3000E88DF98D04841584A88DB98D1A960E94BB
:101C4000C12441F02A930E94E823AC8DBD8D1A96E1
:101C50000E94EE23A88DB98DC8DD0E947F24E093F9
:101C6000F507F093F6076093F7077093F807609213
:101C7000F9077092FA07EC89FD896E897F890E94C5
:101C800069240E9486276C9608950E9481273A2F26
:101C9000D3010D901C90D3011696ED91FD91B001EA
:101CA000ADE1B0E00E94DE27E60FF71F8F01E32FC2
:101CB000F0E0309709F48BC0E130A0E0FA0799F426
:101CC000D30116960E9476280E94E22839F40E94D9
:101CD000C624D30116960E94812804C0D30116960B
:101CE0000E94D12474C0E230A0E0FA07F1F4F301BD
:101CF000A681B781808591859F938F93BF93AF9382
:101D00000E94C624AF91BF918F919F910E94F128AC
:101D100028F4D30116960E945D2206C0D3011696C0
:101D20000E9466220E94812852C0E330A0E0FA0798
:101D300069F4D80114960E947228309731F0F801A6
:101D400004801580D801F001099541C0E430A0E07D
:101D5000FA0769F4D80112960E947228309731F080
:101D6000F80102801380D801F001099530C0E530F8
:101D7000A0E0FA0769F4D80116960E9472283097FD
:101D800031F0F80106801780D801F00109951FC0D5
:101D9000E630A0E0FA07D9F4F801A38DB48DFD0177
:101DA000E27041F0D30116960E947C28D3011A9666
:101DB0000E948128D8010E947228309741F0ED914D
:101DC000FD91FF93EF93D801EF91FF91099572DD9B
:101DD0000C9470130E94D92409F47FC0E130A0E074
:101DE000FA0731F40E94E12410F40E94E82475C03F
:101DF000E230A0E0FA0731F40E94E12414F40E94DA
:101E0000E8246BC0E430A0E0FA0731F40E94EF242C
:101E100014F40E94FB2461C0E630A0E0FA07A9F4A4
:101E20000E9404257F936F93FF93EF930E940A25EE
:101E3000AF91BF918F919F910E94F1282CF4F801EE
:101E4000A285B3850E945D2248C0E330A0E0FA0776
:101E500031F40E94E12410F40E94E8243EC0E530F1
:101E6000A0E0FA0731F40E94EF2410F40E94FB2452
:101E700034C0E730A0E0FA07A9F40E9404257F935C
:101E80006F93FF93EF930E940A25AF91BF918F91BB
:101E90009F910E94F12828F4F801A285B3850E9441
:101EA0005D221BC0E830A0E0FA07B9F40E940425C7
:101EB0007F936F93FF93EF930E940A25AF91BF9199
:101EC0008F919F910E948E2A40F40E9404250E94C7
:101ED0000F250E9481280E9416250C94C9100E948B
:101EE000D92409F481C0E130A0E0FA0731F40E945E
:101EF0001D2510F40E94242577C0E230A0E0FA07E7
:101F000031F40E941D2514F40E9424256DC0E43094
:101F1000A0E0FA0731F40E942B2514F40E94332527
:101F200063C0E630A0E0FA07A9F40E9404257F937D
:101F30006F93FF93EF930E943C25AF91BF918F91D8
:101F40009F910E94EC282CF4F801A285B3850E9491
:101F5000D1244AC0E330A0E0FA0731F40E941D25E5
:101F600010F40E94242540C0E530A0E0FA0731F4C7
:101F70000E942B2510F40E94332536C0E730A0E0E4
:101F8000FA07A9F40E9404257F936F93FF93EF93C0
:101F90000E943C25AF91BF918F919F910E94EC28A8
:101FA00028F4F801A285B3850E94D1241DC0E83031
:101FB000A0E0FA07C9F40E9404257F936F93FF9372
:101FC000EF930E943C25AF91BF918F919F910E940A
:101FD0008E2A09F008F408C00E9404250E941625E4
:101FE0000E9481280E940F250C94C9100E9487230B
:101FF000F0E0309749F1E130A0E0FA0721F4F9016F
:10200000028013801FC0E230A0E0FA0721F4D9015A
:10201000ED91FD9118C0E430A0E0FA0721F4F90138
:10202000048015800FC0E830A0E0FA0721F4F90120
:102030000680178007C0E031A0E0FA0729F4F90113
:1020400000841184F00109950E948827269608953E
:102050000E94412510E000E02EE531E040E050E034
:102060000D9902C0E1E001C0E0E01E2B0E9902C014
:10207000E2E001C0E0E01E2B0C9902C0E4E001C0E8
:10208000E0E01E2B0B9902C0E8E001C0E0E01E2B4F
:102090000A9902C0E0E101C0E0E01E2B40E050E000
:1020A0004830E0E05E074CF4E42FA12F0E94B827EF
:1020B000E1700E0F4F5F5F4FF3CF003059F00230E9
:1020C00048F4E091FB07E12321F4A091FB07A03045
:1020D00009F414C0E0E0E093FC07E093FD07E0930F
:1020E000FE07E093FF07E0930008E0930108E09308
:1020F0000208E0930308E093FB0741C0E091FB076F
:10210000E03081F40E9445251093FB070E9474067D
:10211000E093FC07F093FD076093FE077093FF07C1
:102120000E944C250E945725A13DE7E0BE07E0E054
:102130008E07E0E09E0710F028EC30E00E94572563
:102140000E94152310F024E630E00E947406A0914E
:102150000008B091010880910208909103080E9444
:102160009A27DF01CB01F901662777270E94EC2827
:1021700030F4103111F00E9445250E944C250E9438
:102180008627289608951A930A938D01F8010E94D4
:10219000D509099119910895A1E007C0A2E005C0F1
:1021A000A3E003C0A4E001C0A6E00E94450E08958C
:1021B000E0EDF0E1E093CF08F093D008E2EDF0E13C
:1021C000E093D108F093D208ECECF0E1E093D3086F
:1021D000F093D408EEECF0E1E093D508F093D60844
:1021E000E4EDF0E1E093D708F093D808E3E9F7E0F5
:1021F000FA93EA93A0E00E94D00B0E945A0C089533
:10220000AFECB8E025DF08950E94AB28E0E0E09352
:10221000FB06EC85EA93E985EA93EE81EA93EB818C
:10222000EA93A0E00E94A419609608950E94662592
:1022300020E030E00E947406DF01CB01E091D90874
:10224000F091DA086091DB087091DC080E946A2541
:10225000D0F00A932A93E6EFF9E0FA93EA93E0913B
:102260006507F091660760916707709168070E94A3
:102270009B240E947406E093D908F093DA086093D7
:10228000DB087093DC080C9470130E9481270FE127
:1022900010E020E030E00E947425ED91FD91A091C6
:1022A000E108B091E208EA17FB0759F10E947406B1
:1022B000DF01CB01E091DD08F091DE086091DF08DD
:1022C0007091E0080E946A25E0F00A932A93E6E004
:1022D000FAE0FA93EA930E9474250E94EE230E948A
:1022E0007425ED91FD91E093E108F093E2080E94DE
:1022F0007406E093DD08F093DE086093DF087093C6
:10230000E0080C9470130E94662528E330E00E94D8
:102310007406DF01CB01E091E308F091E4086091DD
:10232000E5087091E6080E946A25B0F1959B10C0FF
:10233000E091E708E03059F4EEE2EA93ECE2EA9348
:10234000E2EEF5E00E947E25E1E0E093E7081AC0A6
:10235000E091E708E030B1F0EDE2F0E060E070E03D
:102360000E948325E2EEF5E00E948C250E94A628BB
:10237000E4EEF5E00E948C25DF01CB0145DFE0E0D3
:10238000E093E7080E947406E093E308F093E40802
:102390006093E5087093E608A3C10E94662520E3D8
:1023A00030E00E947406DF01CB01E091E808F09173
:1023B000E9086091EA087091EB080E946A2550F1E3
:1023C000E0E0EA93ECE2EA93A091EC08B091ED082A
:1023D0008091EE089091EF08E3E0F0E060E070E0BB
:1023E0000E9454280E94C4270E94C027EE5DFA4F25
:1023F0000E947E25939B04C0ACEEB8E00E945D2253
:102400000E947406E093E808F093E9086093EA08F4
:102410007093EB0865C10E94662528E230E00E94B7
:102420007406DF01CB01E091F008F091F1086091B2
:10243000F2087091F3080E946A2508F43FC00799DA
:1024400009C0049B07C0A0919007A33011F406991E
:1024500001C010C0E091F408E03059F4E6E1EA93DD
:10246000EBE2EA93E6E0F5E00E947E25E1E0E0930E
:10247000F4081AC0E091F408E030B1F0E5E1F0E0D2
:1024800060E070E00E948325E6E0F5E00E948C2584
:102490000E94A628E8E0F5E00E948C25DF01CB0130
:1024A000B3DEE0E0E093F4080E947406E093F008E5
:1024B000F093F1086093F2087093F30811C10E9441
:1024C00081270EE110E028E230E00E947406DF016F
:1024D000CB01E091F508F091F6086091F708709152
:1024E000F8080E946A2590F10A932A93E9E3FAE03A
:1024F000FA93EA93E0919207FF27662777270E94D5
:102500009B240A93E22FE45FEA93E6E0FAE0FA9371
:10251000EA93E0919207A3E4B7E0F0E0EE0FFF1F2B
:10252000AE0FBF1F0E94EE23E0E0EA93ECE2EA93D5
:10253000E0E2F6E00E947E250E947406E093F50832
:10254000F093F6086093F7087093F808C9C00E94EA
:102550007406DF01CB01E091F908F091FA0860916F
:10256000FB087091FC080E946A2590F0E1E5EA936F
:10257000ECE2EA93E0E6F6E00E947E250E94740613
:10258000E093F908F093FA086093FB087093FC0855
:1025900008954CDE7ADEE0919207E03071F4A0916C
:1025A000FD08A13029F00E949225E1E0E093FD08AA
:1025B000AADE31DFF2DECBDF0AC0A091FD08A23037
:1025C00031F00E9492257BDFE2E0E093FD08089560
:1025D00000000000000008951A931A2FAA98A99AE3
:1025E000EFEFEABB1BBBF4DFA9984AC01A930E9425
:1025F000A72519B3A998E12F43C0AB980E94A7253E
:10260000CF99FECFA99883E08A95F1F708951A93A0
:102610001A2FF3DFAB9AA12FDFDF32C0EEDFAB9AC8
:10262000E5DF08951A931A2FE8DFA12FD5DF28C020
:102630000E94AD25E12FEF71E068AE2FF3DF10327D
:1026400008F00068E02FE295EF70E068AE2FEADF57
:102650000C942F181A931A2F0E94B225103011F0E3
:10266000ECE001C0E8E0AE2FDDDF103011F0E2E079
:1026700001C0E0E0E093FE080E94B2250E94B82568
:10268000199108950E94B225A1E0CCDFE0E0E0932B
:102690000109E0930009EA93A0E00E94241808953C
:1026A0000E94812730E0E091EC06E03009F03FEF36
:1026B0000E94B82500E0003470F4E0E0EA93A02F17
:1026C0000F5FB6DF10E1E12F1150E03019F0A32FBA
:1026D0009EDFF9CFF0CFE0E0EA93A0E00E9424185B
:1026E0000E94882724960895CDDFDADF08951A9393
:1026F0000A938D01A19AA998A29AAA9AA39AAB9833
:10270000A09AA2E3B0E00E94AE2AA898A1E0B0E0AF
:102710000E94AE2AA89AA1E0B0E00E94AE2A0E94D0
:10272000BE250E94BE25A8E057DF80E991E0019711
:10273000F1F7A1E077DFAFE0B0E00E94AE2AE0E081
:10274000E0930109E0930009A6E06CDFA4E36ADFEF
:10275000A0E468DFA2E066DFE0E0E093FE08A0DF2F
:10276000A1E078DFE1E0E093EB06E0E0E093EC0647
:10277000E1E0E093F106E093F206002E012AA1F0D9
:10278000D801ED91FD91E093EF06F093F006D801AA
:102790001296ED91FD91E0930407F0930507D8019F
:1027A00014960E9472280AC0E0E0F0E0E093EF0681
:1027B000F093F006E0930407F0930507E093060713
:1027C000F0930707E1E0E093F306EFEFE093F40600
:1027D000E1E0E093FB06ECEFF6E0FA93EA93EFEF2B
:1027E000EA93A8E0B0E00E949520E1E09DC20E943B
:1027F000AD250A93A12F1CDF11DFE02FEF70E83029
:1028000018F00CDFE093FF0809DF0C942F180E94EA
:10281000C625A02F0DDFE32FEF70E83018F0A09150
:10282000FF08F5DEA12FF3DE0C9420180E947F270D
:102830003A2F2E815F81503810F4203410F00C9420
:10284000DF170E94B8255A93A22FD1DF1E2FE52F44
:102850000E94CC250E2F303011F0102B03C0E02F3A
:10286000E0951E235A932A93A12FD1DF0C94DF17F2
:102870000E94AD25003810F4103418F0E0E00C94FC
:102880002F180E94B8250A93A12FB1DF6E2FE02FD9
:102890000E94CC25E62311F0E1E001C0E0E00C94B9
:1028A0002F180E947F270A2F3E812F815885498546
:1028B0000E94B8254A93A52F0E94D5251E2FE02FF0
:1028C000E73011F0E83031F42A93A02F0E94DA218A
:1028D0002E2F0CC0E33011F4209502C0E03009F433
:1028E00002C0E93009F402C0EA3021F4E32FE09598
:1028F0001E2302C0E23021F4E32FE2231E2B0CC082
:10290000E13021F4E32FE2231E2706C0E43021F456
:10291000E32FE095E22B1E234A935A93A12F0E94A6
:102920004122AE2F74DF0C94051AAA9327970E94B8
:102930007F27AC89A03848F4AB89A03430F4AA8949
:10294000A03019F0A989A03011F40C942819EA8953
:10295000E695E695E6952E2F2887EA89E770EB87BE
:10296000E03019F0E885EF5FE8870A89AC89BB277A
:10297000EA89F0E0AE0FBF1FA138E0E0BE0720F00B
:10298000AC89E0E8EA1BEA8BE989EA87AB89BB27D7
:10299000E989F0E0AE0FBF1FA134E0E0BE0720F0F0
:1029A000AB89E0E4EA1BE98BED85E63009F050C025
:1029B000E889E13011F40C942819E33041F4E091F6
:1029C0000607F0910707309711F40C942819EB854E
:1029D000E03019F4AA890A17D9F0E22FAE85BF8535
:1029E000F0E00E94DA251989103091F0322F3F93E0
:1029F0003F5FE885AF91AE1718F40E94DF25F7CF4F
:102A0000E22FAE81BF81F0E00E94DA251150ECCFB9
:102A10002989EA85E217D9F0A22FBB27E885F0E0E3
:102A20000E94DE27AE85BF850E94DA252F932F5F97
:102A3000EA85AF91AE1758F430E03F933F5FE885E9
:102A4000AF91AE1718F40E94DF25F7CFEFCF0DC07E
:102A5000E93011F4E0E003C0EA3039F4EFEFEA873F
:102A6000EA93AE850E94DA21EA87EC89E7703E2F6F
:102A7000E8E0E31B2E2F522FAA892A1710F05A895B
:102A80000EC0303061F0432FAA89A93018F4EA89CA
:102A9000E21B4E2FE42FF0E0E056F94F44913A93B9
:102AA000A52F0E94CC215E2FAB852A1718F4EB8549
:102AB000E21BEB87EB85F0E0E056F94F04900C86C3
:102AC0000E94B825E989E150E98BEF5F09F4E9C07C
:102AD00010E00C89EE85FF85EE83FF83303009F42A
:102AE00096C04B87AD85A63009F055C0EA891E1700
:102AF00008F050C00A93AC890E94D525E523AE2F7B
:102B0000E32F0E94B827E9870E94EC251E2EE32FB1
:102B1000A52F0E94B827E095E121A985EA2BE98736
:102B2000AA892A1730F4E02FE695E695E695EF306E
:102B300040F00E94F425FA93EA93AC850E941F228C
:102B400029C0AA89A11BA83010F4EC85EB87085F87
:102B50000A93AC890E94D525AB85EA23AE2FE22FDC
:102B60000E94B027EA87E22FAB850E94B027E0954C
:102B7000A985EA23AA85EA2BEA870E94F4253196E3
:102B8000EF83F8873197FA93EA93AD850E941F226D
:102B9000185FACCF3BC0EA891E17C0F5ED85E93060
:102BA00011F0EA3009F40DC00E94F4253196EF834C
:102BB000F887319766277727DF01CB010E94002233
:102BC000EA870A93EC89EA93E32FAC850E94B02749
:102BD000EA935A93A98965DEAA892A17B8F4E02FE7
:102BE000E695E695E695EF3088F4A11BA83010F441
:102BF000EC85EB87085F0A93EC89EA93E22FAC85BA
:102C00000E94B8270E94F925185FC5CF3EC05B8798
:102C1000EA891E17D0F5AA89A11BA83010F4EC850B
:102C2000EB87ED85E93011F0EA3009F409C0AD8594
:102C3000A63019F4AB85AF3F19F00E94EC25EA8766
:102C4000AD85A630A1F40E94F425FA93EA930A9385
:102C5000AF890E94D525AE85EA230E2EEE85E0953C
:102C6000AD85EA23E029AE2F0E941F2206C00A93F9
:102C7000EC89EA93EC850E94F925EE81FF8131967B
:102C8000EE83FF83085F185FC3CFEB89EF5FEB8BA9
:102C9000E885AE85BF85F0E0EA0FFB1FEE87FF8772
:102CA00011CFD6C20E947F273A2F2E815F815031EB
:102CB00008F05FE0243008F023E0E22FF0E0E65572
:102CC000F94FA491E52FE695EA2B1E2F0E94B2251D
:102CD000A12FA8DCA3DC50FF02C0A0DC0E2FA12F87
:102CE000A1DC50FF02C0A02F92DCA32F90DC67C1B3
:102CF0000E94FF251CF0E0E0F0E016C00038E0E0A4
:102D00001E071CF0EFE7F0E00FC00DC00E94FF258A
:102D10001CF0E0E0F0E008C00034E0E01E071CF02A
:102D2000EFE3F0E001C0F8010991199108950E94C4
:102D3000AD250A931A93A091EB0678DD90C10E940D
:102D400081270A2F3C81313810F4013418F00E9499
:102D5000662217C0E32FE7701E2F369536953695FD
:102D6000103009F03F5FA32FBB2788279927E02F5A
:102D7000FF27662777270E94E627EC5FFF4F6F4FFC
:102D80007F4F0E94882725960895BA93AA93239788
:102D90000E9406268F01002E012A19F4E0E0F0E0DF
:102DA00068C00E940C260F820E940C260E820E9490
:102DB0000C260886EB85A885EA1718F4E0E0F0E019
:102DC00058C0F8010F5F1F4F5491A885BB27EE270D
:102DD000A50FBE1FEB85F0E0EA17FB0718F0E0E057
:102DE000F0E047C0EF81E030E1F0A985BA85EC93CF
:102DF000E695E695E6954E2FEF81E77009F04F5F77
:102E0000A885EB85EA1BF0E0DF01EE81F0E00E948F
:102E1000DE27DF01E42FF0E00E94DE27E00FF11F44
:102E200028C09801E52FF0E00E0F1F1FA885AF5FA7
:102E3000A887A150EB85AE17B0F4F901E491E695AF
:102E4000E695E6954E2FF9012F5F3F4FE491E7702D
:102E500009F04F5FAE81BB27E42FF0E00E94DE2730
:102E60000E0F1F1FE3CFF901E491A985BA85EC93FA
:102E7000F8010E9486272C960895E0E0E093ED0685
:102E8000A091EE06BB270E941126F0E0AE0FBF1FF7
:102E9000E091F206F0E0AE0FBF1F0E9418260895E1
:102EA000AA9321970E940626309709F450C0AF815B
:102EB000AA3009F449C0EF81EA93DE01179665DF75
:102EC000AF01309709F47BC0E091F106AE81EA0FC3
:102ED0003E2FA091ED06BB270E941D260138E0E0A1
:102EE0001E0718F0032F1127C8DF0E942226E8854D
:102EF000EA930E941126EA93E1E0EA935A934A93F7
:102F0000A7E00E942926AE81EA0FEA93E091EE063F
:102F1000EA93E091F106EA930E9411260E942E2680
:102F20000E942926EA93A091EE060E941126EA0F3C
:102F3000EA933A93E091F2060E942E26F6DCE0E84E
:102F4000F0E0E017F10711F498DF39C036C0AF8127
:102F5000AA3051F1E091ED06E695E695E6953E2F13
:102F6000E091EE06E295EF702E2F3A932A93A98511
:102F700099DEE32FEE0FEE0FEE0FE093ED06A0E1EA
:102F80002A9FF001E093EE060E942226E8E0EA93F1
:102F9000E0E10E942E260E942926F0E038968F015B
:102FA0000038E0E01E0748F000E010E0E091EE0697
:102FB000F0E07096DF010E9418260093ED060E9453
:102FC0008627289608950E947F275A2F48855530D6
:102FD00000F5EE81FF8105910E94372615910E9430
:102FE000372625910E9437263591EE83FF83E985A8
:102FF000EA934A930A932A93E1E0EA93EB85FC85EE
:10300000FA93EA93A52F0E9495140A93A22F97DEB4
:10301000FCC10E946622F9C10E94C6250A93E09174
:10302000F406E12319F0E091EB0602C0E091EC0612
:10303000AE2F0E941614110F103009F411E0E12F89
:103040000E948827269608950E94AD25A02FBB27B1
:103050004FDEE093ED06A12FBB270E9418261981B1
:10306000088123960895AA932B970E947F27AC8905
:10307000BB273EDEEC8BAA89BB273ADEEA8BAB8905
:10308000BB2744DEEB8BA989BB2740DEE98BEA89AD
:10309000E093ED06E989E093EE06E1E0E887E9894F
:1030A000AB89EA1779F51C89AA891A1731F41A93A2
:1030B000EC89EA93A1E0B0DFCBC0AA891A1730F4FB
:1030C000EA89E11B0E2F41E050E006C0AA89E12FFA
:1030D000EA1B0E2F4FEF5FEF3B89E091F306EE8383
:1030E0000E943A2639F01A933A933395AA8594DFD1
:1030F000EF83F6CFEF81E887140FE02F0150E03027
:1031000059F7A6C0EA89AC89EA1741F53B89A98934
:103110003A1730F4E989E31B2E2FE1E0F0E006C016
:10312000A989E32FEA1B2E2FEFEFFFEFED87FE8734
:103130001C89E091F306EE830E943A2631F01A933F
:1031400013950E943F26EF83F7CFEF81E887ED8547
:103150003E0FE22F2150E03059F77AC0E091F3069C
:10316000EE830E943A2609F473C01C893B89E1E092
:103170002E2F0E2FAA89BB27EC89F0E0AE1BBF0BC8
:10318000AD0155232AF40FEFFA010E94A427AF01E5
:10319000FA01EE0FFF1FEF87F88BA989BB27EB8998
:1031A000F0E0AE1BBF0BAD87BE87AE85AA233AF415
:1031B0002FEFED85FE850E94A427ED87FE87ED8524
:1031C000FE85EE0FFF1FEB87FC871A933A93A1E071
:1031D00023DFE887E0E0E987EA87AD85BE854A1707
:1031E0005B07BCF0100FEB85FC850E944326A98588
:1031F000BA854A175B072CF4320FAF85B8890E9455
:103200004A261A930E943F26E887EA89E11751F778
:1032100018C0320FEF85F8890E944326ED85FE85A0
:10322000A985BA85EA17FB072CF4100FAB85BC857E
:103230000E944A261A930E943F26E887E989E317ED
:1032400041F7EB89EF5FEB8BE989EF5FE98B89CF82
:103250000E94862765960895AA9322970E947F2749
:10326000AA85A13019F4A985A13009F005C0EC8523
:10327000EA93AC855CDD64C0EA85E03019F0E9854D
:10328000E03009F45DC0E885AC85EA0F1E2FE885C3
:10329000AB85EA0F2E2FE091F306E150EF83EA852C
:1032A000AC85AE0FA1503A2FA885E32FEA1B0E2F55
:1032B000AF813A1BE985AB85AE0FA1504A2FA88597
:1032C000E42FEA1B5E2FAF814A1BE091F406EE83E8
:1032D000EFEFE093F4061A93EC85EA93E02FE150C8
:1032E000EA93AE85C0DE0A932A93EA85EA93A1E8C1
:1032F00014D23A932A933A93A52FA150B4DE0A939D
:103300005A93EA85EA93A8E808D20A934A931A9353
:10331000A42FA9DE1A935A93EA85EA93A4E8FDD173
:10332000EC85EA935A93EE85EA93A22F9CDE1A93DA
:103330002A93EA85EA93A2E8F0D1EE81E093F406BD
:103340000E9486272D9608950E947F274A2FAF81DD
:10335000A13019F4AE81A13009F007C00E945126B6
:10336000A091FB060E94161450C0EF81E03019F0C6
:10337000EE81E03009F449C00091EB065091F3066C
:10338000E091FB06E093EB06E1E0E093F3060E9498
:1033900051260E945126A42F5FDFEF81E695A98573
:1033A000EA0F1E2FEE81E41BE41B2E2F3327AF8183
:1033B000A33020F00024021603060CF013C0E985A8
:1033C000EF5FEA93E42FA985EA0FEA93E985E250DB
:1033D000EA93A22FF9D11A93E985EF5FEA93A091BE
:1033E000EB062CD2EE81A885AE0FA2502A2F3327F0
:1033F0000024021603062CF41A932A93A091EB06DC
:103400001DD20093EB065093F3060E9486272A965E
:103410000895BA93AA9323970E947F27ED85E887A2
:10342000E091F306EF83E091EB06EE83AA89BB27D8
:10343000EF850E941D26A989BB27E8890E94562690
:10344000E8890E945D2671F0E885E078F1F4AD85A9
:10345000BE85EAE5F0E00E9465261CF00E946E261B
:103460000CF413C0332312F00E947326AF81A230F4
:1034700020F02230E0E03E070CF407C00E947726DF
:1034800021F40A93A22FA15052DCE885E878E838AD
:1034900091F0E885E078C9F4AD85BE85A25FBE4FA6
:1034A0000E9480263CF0AD85BE85A25FBE4F0E9483
:1034B00085260CF40AC00E948A2638F00E949126C4
:1034C00021F40A93A42FAF5F32DCAA89BB27EF85D2
:1034D000F0E0AE1BBF0B8D0111230AF445C0E88557
:1034E000E278E23891F0E885E07811F5AD85BE85A7
:1034F000A65ABF4F0E9480263CF0AD85BE85A65AD5
:10350000BF4F0E9485260CF413C0332312F00E9493
:103510007326AF81A23020F02230E0E03E070CF4A9
:1035200007C00E94772621F40A93A22FA150FFDB47
:10353000E885E478E43871F0E885E078A9F4AD85B1
:10354000BE85EEE0F1E00E9465261CF00E946E262A
:103550000CF40AC00E948A2638F00E94912621F4B9
:103560000A93A42FAF5FE3DBAA89BB27E8890E94F7
:103570001D26A989BB27EF850E945626EF850E944C
:103580005D2681F0E885E078F1F4EB85FC85AD857A
:10359000BE85AE17BF072CF0E985FA85EA17FB0751
:1035A0000CF411C033237AF00E947326AF81A2304D
:1035B00050F0E02FEE5F0E949A2629F4E02FEF5F93
:1035C000EA93A22FB4DBE885E878E83871F0E88563
:1035D000E078C1F4AD85BE85E8E6F1E00E9465269D
:1035E0001CF00E946E260CF40DC00E948A2650F03A
:1035F000E02FEE5F0E94A22629F4E02FEF5FEA930E
:10360000A42F95DBAA89BB27E889F0E0AE1BBF0B8E
:103610008D0111230AF450C0E885E278E23871F098
:10362000E885E07809F5AD85BE85E4EBF0E00E9421
:1036300065261CF00E946E260CF416C03323A2F0FF
:103640000E947326AF81A23020F00230E0E01E0716
:103650000CF40AC0E02FE2500E949A2629F4E02FD1
:10366000E150EA93A22F63DBE885E478E43891F037
:10367000E885E07809F5AD85BE85AC54BF4F0E9462
:1036800080263CF0AD85BE85AC54BF4F0E94852698
:103690000CF412C00E948A2620F00230E0E01E07DF
:1036A0000CF40AC0E02FE2500E94A22629F4E02F79
:1036B000E150EA93A42F3BDB0E948627639608958E
:1036C0000E947F275A2F4E81A885BB27E42FF0E068
:1036D000AE1BBF0B0DDB1E2FA885BB27EE27A40F4B
:1036E000BE1F06DB0E2FAF81BB27E52FF0E0AE1B20
:1036F000BF0B0CDB3E2FAF81BB27EE27A50FBE1FF4
:1037000005DB2E2F1A933A930A93A32FACDC1A935E
:103710002A930A93A22FA7DC8DC00E947F274A2FED
:10372000A885A03818F4AF81A03408F083C0509168
:10373000F306E52F5150E03009F445C0EE81E0304A
:1037400009F478C00E943A260E2FF0E0A5E0B0E020
:10375000AE1BBF0BFD010E94C4270E94C9279F0119
:1037600010E0403459F40E94AA261A93A02FA8DF33
:103770000E94AA260A93A12FA3DF0FC00E94AA26A7
:103780001A930A93E42FF0E0FA93EA93E0E0F0E072
:10379000FA93EA93A0E0B0E03CDE1F5F33231AF413
:1037A000E12FF0E008C00150A12FBB27E02FF0E08F
:1037B000AE1BBF0BFD01EE0FFF1F31962E0F3F1FFB
:1037C000011778F6B6CF36C00E947F275A2F4E8158
:1037D000A885A03818F4AF81A03408F02BC0403081
:1037E00011F0503009F426C03F81530FE8854E0F89
:1037F000351700F5E52FE31B2E2F293008F028E0C0
:1038000018851417A8F4E42FE11B0E2F093008F0D7
:1038100008E01A933A930A932A93E0E0EA93ECEFD4
:10382000F6E0FA93EA93A8E00E949514100FE9CF0E
:10383000320FDECF0E94862729960895FF92AA9321
:10384000E0970E947F27A8ADA03818F4AFA9A03454
:1038500008F07BC0E091FB064E2FAE2FEEA9EA17D1
:1038600009F073C0FE0136968F01E8AD0E94AF26C5
:10387000EFA90E94AF26FE013696E017F10708F087
:1038800064C001501040D801EC91EFAB01501040E2
:10389000D801EC91E8AF38AD313040F00E94B42649
:1038A00011F0451709F402C03150F6CFE894F0F852
:1038B000F1F83F5F303808F047C00E94B42611F09D
:1038C000451709F441C03A93E8ADEA93A42F0E944A
:1038D0001614AFA9A130D0F0EFA9E1500E94BC2688
:1038E00011F0451709F410C0F0FC0DC0FE01F6966A
:1038F0000E171F0750F5E32F0E94AF26E22F0E94FC
:10390000AF266894F0F802C0E894F0F8AFA9AF339E
:10391000D0F4EFA9EF5F0E94BC2611F0451709F41F
:1039200010C0F1FC0DC0FE01F6960E171F0768F4DB
:10393000E32F0E94AF26E22F0E94AF266894F1F891
:1039400002C0E894F1F8B5CF96CF0E948627E99699
:10395000FF9008952497E0E0E883E983E0E8EA83B4
:10396000EFE3EB830E947F27AD012A85EE85FF857B
:10397000EF3FAFEFFA0739F45A934A93A4E4BAE061
:103980000E94A520ABC0EF3FAFE7FA0739F45A9386
:103990004A93A5E4BAE00E94A520A0C0AB85A73059
:1039A00010F0E6E0EB871B85E12F1150E03019F0B5
:1039B0000E94C526F9CFEC85FD856E857F850E9426
:1039C000E22821F430E00E94C52629C03B850E94F0
:1039D000D12609F008F409C00E94C5260E94D1260C
:1039E00018F00E94D926FACF0DC00E94D12640F4CB
:1039F0000E94E3230E94E3260E94D2233150F5CF98
:103A00000E94C526EC85FD856E857F850E94EA268D
:103A10000E94D2230E94D12610F00E94D92610E0E5
:103A2000EB85E11768F10E94F1260E94EA260E94C8
:103A3000F9260E94E3230E944A2A0E943A290E2F67
:103A40005F934F934F5F5F4FE05DAF91BF91EC93FA
:103A5000E02FFF27662777270E9473290E940227FD
:103A60000E94E3230E9406270E94D223E12F1F5FBA
:103A7000E030B1F6DA014F5F5F4FEEE2EC93D0CF6A
:103A80005F934F934F5F5F4FE22FAF91BF91EC93E6
:103A9000303024F43195DA01EDE202C0DA01EBE2D4
:103AA000EC934F5F5F4F5F934F934F5F5F4FA32F39
:103AB000EAE00E941F28E05DAF91BF91EC935F9315
:103AC0004F934F5F5F4FA32FEAE00E944828E05DCD
:103AD000AF91BF91EC93DA01E0E0EC930E9486276E
:103AE00060960895BA93AA93EF9761970E947F27F3
:103AF00010E0FE01E85AFF4F0E948B28E887F98703
:103B0000FE01EA5AFF4F0E948B28EE83FF83AE81AD
:103B1000BF81E0E0F0E0ED93FC93DE01A45ABF4FDB
:103B2000ED91FD913196FE93EE933197E4912E2F16
:103B3000E03009F4F3C1E12FE03039F4253211F41B
:103B400011E002C00E940B27E8C1E130C1F4253228
:103B500019F40E940B27E0C112E0E0E0ED8B00E0D9
:103B60002D3211F401E0D9C12B3219F4EBE2ED8BC7
:103B7000D4C1203219F4E0E2ED8BCFC102C0E230B3
:103B800039F450E013E0203311F40068C6C102C0DC
:103B9000E33091F4203310F02A3308F007C0AAE094
:103BA0005A9F502DE22FE0535E0FB7C140E02E32F6
:103BB00011F414E0B2C10FC0E43099F4203310F0D6
:103BC0002A3308F008C00062AAE04A9F402DE22F85
:103BD000E0534E0FA2C12C3619F4026015E09DC1CE
:103BE00003C0E53009F099C1E22FE33659F40E9491
:103BF00012270E9418270E941227A481AA930E94CC
:103C00001F278AC1E53411F0E53609F403C0E63612
:103C100009F048C0FE017696EE87FF870E942527AF
:103C20000E947C280E942B270E943027AD85AA2362
:103C300032F0AD89AB3259F0A03281F017C00E944A
:103C400032270E9407290E942B27EDE2ED8B07FF08
:103C500005C0ED89EA930E941F2708C0EE85FF8505
:103C60003196EE87FF873197AD89A08305FF46E047
:103C7000263651F40E9432270E94A6284A93AB8927
:103C8000BC890E94D41F09C00E9432270E94A62826
:103C90004A932A93AC89BD895DDEFE0176960E9427
:103CA000372724C0E33751F40E9430270E9425278C
:103CB0001496ED91FD910E94372711C0E037D9F499
:103CC0000E9430270E9425271496ED91FD91EE87E2
:103CD000FF87AE85BF850E94BE201E2F08600F772C
:103CE000403011F0411708F001C0142F40E0E0E02F
:103CF000EC8B30E073C0E43611F0E93611F4046067
:103D000002C0E537A1F4EAE0EC8B01FF08C0E0E077
:103D1000FAEC6AE97BE30E94AC231AE022C0E0E1FE
:103D2000F7E260E070E00E94AC2315E01AC0E835CD
:103D300011F4086003C0E83709F0EEC0E0E1EC8B55
:103D400001FF08C0E0E0F0E060E070E10E94AC2319
:103D500018E007C0E0E0F0E160E070E00E94AC2312
:103D600014E0403011F00F7701C041E001FF08C0BE
:103D70000E9430270E94252714960E94762815C09D
:103D800002FF0AC00E9430270E94252714960E9435
:103D900072280E94D42709C00E9430270E9425273C
:103DA00014960E94722866277727EA87FB876C871C
:103DB0007D8702FF12C0AD85AA2342F40E943227FC
:103DC0000E94A8270E942B27EDE2ED8BED89E030C1
:103DD00019F01F5F4F5F01C00B7F342F00FD14C02F
:103DE000151710F4351708F00FC007FF08C002FFC1
:103DF00004C00B7F2D89115001C020E301C020E2D7
:103E00000E940B275150ECCF141790F4006102FF71
:103E100006C00E943F2709F0515011504150E0E385
:103E2000EA930E941F27503009F051504150ECCFC7
:103E3000312FEC89E030B9F43030A1F003FF06C037
:103E4000EE85FF852591EE87FF8705C0AE85BF858E
:103E50002D91AE87BF870E940B27503009F051503B
:103E60003150EACF4FC00E947F240E942B230E9432
:103E700024282E2F2A3030F003FF02C0295C01C015
:103E8000295A01C0205D04FD1FC0213350F40E9457
:103E9000CD23A130E0E0BE07E0E08E07E0E09E0722
:103EA00009F40BC0431740F4531710F000FF01C092
:103EB00010C020E207FF08C020E3006102FF04C039
:103EC0000E943F2709F051500E940B27503009F003
:103ED000515031500E947F240E942B230E9454286D
:103EE0000E942B27EC890E94CD23FF276627772786
:103EF0000E9424280E94AC230E947F240E94E22872
:103F000009F0B1CF00FF08C0503031F05150E0E26D
:103F1000EA930E941F27F8CF10E0FFCDAE81BF814A
:103F2000ED91FD910E948627EF966F9608950E946D
:103F300081278D013C81A32F0E945017D801ED915C
:103F4000FD913196FE93EE930C941B22FF92F82E76
:103F500026970E948127FE010E948D2734852585A2
:103F6000DE0116960E9491278D01E0E0EE83EF833B
:103F7000E887E9872A93A32F0E942418DE011A9666
:103F80000E949127ED91FD91FA93EA931A930A9377
:103F9000E7E9FFE1FA93EA93DE011A96A3DD0E94B6
:103FA00088272A96FF9008952497E0E0E883E98324
:103FB000EA83EFE3EB830E947F279D015A85ED851D
:103FC000FE85EF3FAFEFFA0739F43A932A93ACE45A
:103FD000BAE00E94A520A5C0EF3FAFE7FA0739F489
:103FE0003A932A93ADE4BAE00E94A5209AC0AE8528
:103FF000AA236AF4EB85FC856D857E850E940729DE
:104000000E944F27D9012F5F3F4FEDE2EC935730CD
:1040100008F056E0152FE12F1150E03029F00E94F2
:10402000F1260E945427F7CF0E9459270E94AD29FC
:104030000E944F2710E0E0E0F0E060E87FE30E949C
:1040400054270E9459270E948E2A68F00E94C52694
:104050001F5F173238F03A932A93A1E5BAE00E9425
:10406000A5205FC0EECF103031F4D9012F5F3F4F54
:10407000E0E3EC9328C0E12F1150E03021F10E94E1
:10408000F1260E94EA260E94F9260E9462270E94D9
:104090004A2A0E943A290E2F3F932F932F5F3F4FBA
:1040A000E05DAF91BF91EC93E02FF0E00E943023F0
:1040B0000E9467270E94FC290E9462270E9406270F
:1040C0000E944F27D8CF503049F1D9012F5F3F4F81
:1040D000EEE2EC93E52F5150E03001F10E946227AF
:1040E0000E94E3260E944F27EB85FC856D857E8527
:1040F0000E943A290E2F3F932F932F5F3F4FE05D91
:10410000AF91BF91EC93E02FF0E00E9462270E94F4
:1041100067270E9406270E944F27DCCFD901E0E0E5
:10412000EC930E9486272F960895BA93AA93B9819B
:10413000A881109631F0FC81EB816A81619311971F
:10414000E9F7EB81FC810C941D22BA93AA93E991C3
:10415000F991A991B991CD0105900D920020E1F757
:10416000FC010895BA93AA93A991B991EE27FF276C
:104170006D91662311F03196FBCF0895BA93AA93FF
:10418000AA27BB27E991F9910590002011F011961B
:10419000FBCFFD0108950E944125488559850A8578
:1041A0001B85288539850E946C2769F01F930F9322
:1041B0000F5F1F4FD9012F5F3F4F0E94C528AF915E
:1041C000BF91EC93F0CF18C00E94412548855985D6
:1041D000088519852A853B850E946C2769F01F9305
:1041E0000F930F5F1F4FD9012F5F3F4FEC91AF919E
:1041F000BF910E94D128F0CF0E9486272C96089567
:104200000E94AB287B816A81F981E88177FB770F77
:1042100067FD7160972F9E5781F078F0983190F488
:10422000AA27BB27882708948795B795A7959A95BD
:10423000D1F7EA23FB23682305C0E8947727EE270C
:10424000FF2766276F77769508F4606877F9A9915C
:10425000B99189919991EA17FB076807790797FB4C
:1042600008950E94AB280E949C280E9400210E9471
:10427000A12819F40E94972805C0E6F70E94972804
:104280000E947327249608950E94AB2824971A93BE
:104290000A930E9430230E94E6282CF0EFEFFFEFF4
:1042A0006FE77FEF75C00E947A270E94A628ADB7FE
:1042B000BEB711971F930F930E94F6280F911F917D
:1042C0000E9454270E943023E3EFF4E065E37FE38C
:1042D0000E948E2A50F40E947A270E9430230E9466
:1042E000AD290E945427015010400E947A270E9455
:1042F00073277F936F93FF93EF930E947A270E9417
:104300000F25AF91BF918F919F910E944A2A0E94E1
:1043100054270E947A270E940227EA83FB836C833A
:104320007D83A6E2B2E485E69FE30E94FC29DF01DB
:10433000CB01EEE4F1E164E570E40E9406270E94FF
:1043400002277F936F93FF93EF93EA81FB816C8148
:104350007D81ADE4B1E184ED9FE30E94A629AF9198
:10436000BF918F919F910E944A2A7F936F93FF93F1
:10437000EF93F8010E946727A8E1B2E781E39FE38A
:104380000E94FC29AF91BF918F919F910E94AD290E
:10439000198108812A9608950E94AD25E12FF0E049
:1043A000E056F94FA491E02F0E94B02719810881AF
:1043B000239608950E9481270A2F3C81E02FE73041
:1043C00011F0EA3019F41091EB0609C0E93019F444
:1043D0001091EC0604C0E83089F41091FB06E091DE
:1043E000EC06E03039F0103011F0EFEF24C0E32F8D
:1043F000E09521C0103011F4E0E01DC0E32F1BC098
:104400000E9481278D013C81E32FE13019F4F801EE
:10441000E49111C0E23021F4D8010E94C5280BC0FC
:10442000E33039F4D801E0910407F09105070995CC
:1044300002C0D801EC910E948827259608950E9419
:1044400081271A2F2C813D810E81E02FE03021F44D
:10445000E12FD901EC9311C0E23029F4E12FD90109
:104460000E94D1280AC0E33041F43A932A93A12F45
:10447000E0910607F091070709950E948827279683
:104480000895AA93A991A0FBE7F9A1FBE6F9A2FB85
:10449000E5F9A3FBE4F9A4FBE3F9A5FBE2F9A6FB2C
:1044A000E1F9A7FBE0F90895E091A107F091A207D7
:1044B0006091A3077091A40708950E947C28EF5F84
:1044C000FF4F6F4F7F4F0E9486280895E0E0F0E095
:1044D00060E070E00895E0938907F0938A076093A5
:1044E0008B0770938C070895E7EBF7E0FA93EA9354
:1044F000E0E0F0E0FA93EA93ACE0B0E00C94CB207B
:10450000FA93EA93E0E0F0E0FA93EA93ACE0B0E0EB
:104510000C94E420E0936107F093620760936307D3
:104520007093640708950E944A2AE0937D07F093F0
:104530007E0760937F07709380070895E981FA8171
:104540006B817C810E94E22808950E94D927FF2771
:1045500066277727DF01CB010E946307E0300895CB
:10456000A0916907B0916A0780916B0790916C07E1
:104570000895E0919007F0E030970895E091910759
:10458000F0E030970895E0918307F0918407089553
:10459000A0918107B0918207EA1BFB0BE1CF0E943B
:1045A000D4270E9473290E948E2A08950E947406BF
:1045B00092CF0E947406DF01CB01E0918907F09150
:1045C0008A0760918B0770918C070E949F2708953E
:1045D000A132EEE4BE07E0E08E07E0E09E0708951A
:1045E000E0939107E3CFA83BEBE0BE07E0E08E0746
:1045F000E0E09E0708959298E0E0E0939107E2E002
:10460000E0938E07D3CFE0938E07D0CFE0E0E09326
:10461000C307E093C407E093C507E093C607089576
:104620009298949896989798C4CFA93BEBE0BE07D0
:10463000E0E08E07E0E09E070895662777270E9456
:10464000732908950E94AD29A88DB98D8A8D9B8DFF
:104650000E94FC290895AA85BB858C859D850895B7
:10466000AE81BF81888599850895E0916107F091B9
:10467000620760916307709164070E94A6280895FD
:10468000A0916107B09162078091630790916407E0
:1046900008950E944A2ADF01CB01E0E0F0E060E8E3
:1046A0007FE30E94B8280E94A62908950E94442111
:1046B0000E94A128A7EBB8E883E094E30E94FC29BC
:1046C0000E949C280E94FC29A6E0B9E28DE499E3AF
:1046D0000E94AD290E949C280E94FC29A6E2B5ED0B
:1046E0008FE89AE30E94AD29A0E0B0E080E89FE364
:1046F0000E944A2AADECBCEC8CE49EEB0E94AD29F2
:10470000A3E3B3E988E893EC0E94AD290895F9D3B7
:104710001A2F2C813D81E12F0895D801EC91AA81B7
:10472000BB811C96EC930895D8010E947C28AA8135
:10473000BB811C960E9481280895A38DB48DFD0134
:10474000E4700895F301A681B78180859185E3E047
:10475000F0E060E070E00895E88BF98B6A8B7B8B6A
:104760000895E091F507F091F6076091F7077091D1
:10477000F807A889B9898A899B890E94EC2808953D
:10478000A091F907B091FA076A167B060895AE81E9
:10479000BF81EA0FFB1FAF010895A889B9898A89F3
:1047A0009B890895EC87FD876E877F870895D301E5
:1047B000ED91FD91DF01EC85FD85BD01ADE1B0E03E
:1047C0000E94DE270895AC85BD858E859F8508955E
:1047D0004A93E8ECF8E0FA93EA930895ED91FD919D
:1047E000662777270E94A62884E00E94A61F2896A5
:1047F0000895DB01AE0FBF1F5B960E947228E17027
:104800000895E88DF98DA08DB18D0E94DF0B3F9644
:104810009F010895A88DB98D1A960E947228E09381
:10482000EF07F093F007E88DF98DE28DF0E0309717
:1048300008952A934A93EBECF8E0FA93EA93A09157
:10484000EF07B091F007EC91FF27662777270895CF
:104850002A934A93ECECF8E0FA93EA93A091EF07DD
:10486000B091F0070895EC8DFD8D00841184A28530
:10487000B385EC91D001F0E0EE0FFF1FAE0FBF1F2C
:104880000E9472286627772708952A934A93ECECB2
:10489000F8E0FA93EA93EC8DFD8DA285B385EC9157
:1048A000FF2766277727089584E00E94A61F289691
:1048B00008952A934A93E0EDF8E0FA93EA93A091E1
:1048C000EF07B091F0070895E1E0F0E060E070E0FC
:1048D0000895E093F107F093F2076093F307709364
:1048E000F4070895AC89BD89E8E00E9406284FCFFF
:1048F000FA93EA9380E00E94A61F24960895E8891F
:10490000F9896A897B890895D301ED91FD91DF01D1
:10491000E885F985BD01ADE1B0E00E94DE2708958C
:10492000E88DF98D04841584A091EF07B091F0070C
:10493000EC91D00108950E94A628B6CFE88DF98D9C
:1049400004841584A091EF07B091F0070E947228AB
:10495000E015F1050895A091EF07B091F0070895D3
:10496000E88DF98DA485B585868597850D01F3DFE2
:104970000E947C28D0010E94EC2808950E947C2887
:10498000DACF0E947228E015F1050895F301A281A3
:10499000B3818481958198DF0E94B8280E949A276C
:1049A00008950E947C283197604070400E948628BC
:1049B00008951A930A938D01F801E28DF0E0309783
:1049C0000895F801A285B385AC91E489AE170895E6
:1049D000F801A285B385EC91EF5FEC930895F8019F
:1049E000A285B3850D901C90D80154960E94722820
:1049F0000E161F060895F801A285B385ED91FD916D
:104A00003196FE93EE930895F801A285B3850E9436
:104A10007C280895D80154960E947C280895A0E02F
:104A2000B0E080E89FE30E94AD290895A0E0B0E0E7
:104A300080E89FEB0E94AD290895F801A285B38517
:104A4000AC91E089EA170895F801A285B385EC914D
:104A5000E150EC930895F801A285B3850D901C9068
:104A6000D80150968ECFF801A285B385ED91FD91C6
:104A70003197FE93EE930895D80150960E947C28BA
:104A80000895BA93AA933BD20895EE81FF81FA93D9
:104A9000EA93A12F0C94F60F0E947406E09300088D
:104AA000F0930108609302087093030808950E9430
:104AB0007406DF01CB01E091FC07F091FD076091E6
:104AC000FE077091FF070E949F2708951AD200E009
:104AD00010E008950E949F27A93EE3E0BE07E0E0B2
:104AE0008E07E0E09E070895E0919007AFE2B7E0FF
:104AF000F0E0EE0FFF1FAE0FBF1F0895FA93EA9389
:104B0000A0E00C94E3170E94A628EBE2F0E060E03E
:104B100070E00E94A6280895E491F0E032960E9489
:104B2000D4270895D3DC0E94A628E1E2F0E060E0FB
:104B300070E00E94A628EFE7F0E060E070E00E94DD
:104B4000A628AFE3B0E080E090E00C940411AA9AAC
:104B5000E0E0EABBA99A0C94E8121A930A931A2F80
:104B60000A810895E091FE08E063AE2F0C941213C1
:104B7000E091FE08E463AE2F0C941213A0E30E94B0
:104B8000EC1280E991E00197F1F70895BAD11A2F5C
:104B90000C813D813A930895E770A7E00E94C128F7
:104BA000EA1BA1E00E94B02708950E94F713AE2FE0
:104BB0000C944122EA0FFB1FEE83FF830895E889DE
:104BC000EA93EF81F8853196EF83F8873197FA936E
:104BD000EA93A0E00C941F22E889EA93AF81B8859C
:104BE000882799270C940022E889EA93EF81F885B9
:104BF0000895EA93EE85EA93A9890C9451141A93C7
:104C00000A938D01002400160106089578D1E091E1
:104C1000EF06F091F0060895F8010F5F1F4F049022
:104C20000895E091EF06F091F0063196E491089531
:104C30000E948616E093EE060895F0E0EA0FFB1F4F
:104C40008F010895E091ED06EA93E091EE06EA9374
:104C500008950E949514E091ED060895EA93E0E02E
:104C6000EA93E0E0F0E0FA93EA93A9E00895EE8396
:104C7000FF830895EE81E150EE83EF5F08953A934C
:104C8000AA850C940C18A985BA85EA0FFB1FE98741
:104C9000FA870895E985FA85EA1BFB0BE987FA870D
:104CA0000895E985EA93E985EA930895F0E0AE1B5B
:104CB000BF0B9D01A989BB270895F0E0EA0FFB1FF8
:104CC000AF01E885E178E1380895EA1BFB0B0F019D
:104CD000DF01EB85FC85AE17BF070895E985FA85EE
:104CE000E015F10508950A93A22F0C9497160A93E4
:104CF000A22FA2500E943814AE2FEE81EA17089519
:104D0000EB85FC85AE17BF070895E985FA85EA179C
:104D1000FB0708950A93A42F0E949716AF81A23033
:104D200008950A93A42FAE5F0E943814AE2FEE812F
:104D3000EA170895EA93A22F0E943814AE2FEE814D
:104D4000EA170895EA93A42F0E943814AE2FEE813B
:104D5000EA170895E885EA93E885EA930895D8016B
:104D6000EC930F5F1F4F08953A93A8AD0E9438143B
:104D70005E2FEEA9E51708952E2F3A93A22F0E94D9
:104D800038145E2FEEA9E51708956ADCE0E0F0E044
:104D900060E271E40E94FC29EE83FF8368877987D3
:104DA0000895EE81FF81688579850DDD0E948E2A48
:104DB000089509DDEDECFCEC6CEC7DE30E94FC2930
:104DC000F1DC3F5F0895E0E0F0E060E271E40E9412
:104DD000FC290895A0E0B0E080E09FE30E94AD29A7
:104DE00008953EDCEDECFCEC6CEC7DE30E94FC29CC
:104DF0000895DF01CB010E943121EE83FF83688794
:104E0000798708952DDC0E94FC2908950E94B82816
:104E10000E94A62908952A93AF81B885E985FA856D
:104E200009950895FE01E65AFF4F0E948B280895C8
:104E30003497DE01A65ABF4FED93FC930895AF81DE
:104E4000B885E985FA8509950895DE01A65ABF4F10
:104E50000E9491280895EA87FB876C877D870895D3
:104E6000E1DFE6CFEA85FB856C857D850895EE87D9
:104E7000FF87AE85BF850E94B2201E2F08950B7F4D
:104E8000ED89EA93DE01A95ABF4F0E949128FE01E5
:104E9000E75AFF4F0E948B28099550300895EB8701
:104EA000FC876D877E870895EE83FF836887798707
:104EB0000895EE81FF8168857985AB85BC858D85F8
:104EC0009E850895AB85BC858D859E8508950E943D
:104ED000D4270E9473290895EE81FF813197EE83D4
:104EE000FF8331960895A0E0B0E080E89FE30E9440
:104EF000A6290895EE81FF816885798508955A93E2
:104F00004A933A932A931A930A9308955D814C81A8
:104F10003B812A811981088108950024EF0DF01D3D
:104F200008950024AF0DB01D0895EA0FFB1F681F00
:104F3000791F0895EA1BFB0B680B790B0895AE1BD4
:104F4000BF0B860B970B0895F195E195F0400895FE
:104F5000F09560957095E195FF4F6F4F7F4F0895E5
:104F6000EE230E2EEA2F19F0EE0F0A94E9F70895BA
:104F7000EE230E2EEA2F19F0E6950A94E9F708952C
:104F8000EE0FFF1FEE0FFF1FEE0FFF1FEE0FFF1FB5
:104F90000895F595E795F595E7950895FE2FFF0F90
:104FA000FF0B6F2F7F2F08956F2F660F660B762FE5
:104FB0000895EE23E1E009F0EE270895FA9FF02D21
:104FC000EB9FF00DEA9FE02DF10D08957A9F702D73
:104FD0006B9F700DF89F700DE99F700D6A9F602D9B
:104FE000710DFB9F600D711DE89F600D711D88277D
:104FF000FA9FF02D610D781FEB9FF00D611D781F5A
:10500000EA9FE02DF10D681F781F08956E2F6A9FAB
:10501000F0016B9FF00D089557D0D0DF0EF494DFB0
:105020000895002498E0AA0F001C0E1A10F40E0E2A
:1050300001C0A1609A95B9F7EA2FA02D089538D044
:10504000F0DF0EF4E19508953F934F935F930024B2
:105050001124A00130E2AA0FBB1F881F991F001C5A
:10506000111C441F551F0E1A1F0A460B570B28F41C
:105070000E0E1F1E461F571F01C0A1603A9559F71B
:10508000FD01BC01D001CA015F914F913F9108958C
:10509000E894A7FF02C0A1956894E7FDE195C1DF00
:1050A000EA2F0EF4E1950895CFDFFD01BC010895CC
:1050B000E894E7FF02C0E1956894A7FF04C0A195BA
:1050C00000F8039400FA0895E894F7FF02C03CDF6B
:1050D0006894B7FF06C0B195A195B04000F803945D
:1050E00000FA0895ED91FC9111970895ED91FD91CD
:1050F0006D917C9113970895ED91FD916D917D9146
:105100000895ED93FD936D937C9308957E936E9334
:10511000FE93EE9308950F920190F081E02D0F9091
:1051200008950F920D90BC91A02D0F900895E881E5
:10513000F9816A817B810895A881B9818A819B81E7
:105140000895E883F9836A837B8308957A936A9349
:10515000FA93EA9308959A938A93BA93AA93089537
:10516000BB27EA0FFB1F02900A921197E1F70895FF
:10517000182E862F612D192E972F712D1B2EBF2FC4
:10518000F12D1A2EAE2FE12D0895E199FECFFF9358
:10519000FFB7F894AEBBBFBBE09AEDB3FFBFFF9182
:1051A0000895E19B02C0A895FCCF9FB7F894AEBBD1
:1051B000BFBBE09A8DB3E81719F0EDBBE29AE19A14
:1051C0009FBF0895309760407040089500240A16EC
:1051D0000B06080609060895EA17FB076807790712
:1051E0000895AE17BF07860797070895E991F991CB
:1051F0006991799177FB660F771F88277E57880B17
:105200007D938C937EE7769567950EF008953097A1
:105210006040704009F070580895552342F45038AA
:1052200011F4E0FF04C03196691F791F6BF050E85C
:10523000572711F45F93CFC05F3F31F0660F000C2A
:1052400057956795752F08955F9300200AF0CEC09B
:10525000C7C050E8192E1522880F991F9527550FA2
:10526000879550E8072E0522660F771F7527550F83
:1052700067950895689401C0E8945F93F2DF7038F1
:1052800018F07F3F08F4A7C056E1571BAAF45195C8
:1052900058300EF4593030F0EFEFFFEF6FEF7FE74B
:1052A00077F91AC077275523B9F0EE0FFF1F661F55
:1052B000771F5A95D1F710C07727583028F0EF2F75
:1052C000F62F672F5850F9CF552331F07695679513
:1052D000F795E7955A95D1F700200AF439DE5F91EA
:1052E0000895689401C0E894309760407040B1F030
:1052F000002426F0772312F400942ADE172E7EE194
:10530000112032F07A95EE0FFF1F661F111CF9CFA6
:10531000EF2FF62F612D5F938ADF5F9108954F93F2
:10532000AF01FD01DA01AB01BC01CA01402D012C26
:10533000142E4F910895EA0FFB1F681F0895E09502
:10534000F0956095EF5FFF4F6F4F08955F9381DF9A
:10535000903871F150E8152604C05F937ADF9038D9
:1053600039F1703821F1572F591B2BF112F4D7DF87
:10537000FACF583118F0AA27BB278827583028F0D1
:10538000AB2FB82F88275850F9CF552329F0869591
:10539000B795A7955A95D9F7502D512572F0CBDFC7
:1053A00038F46795F795E795739513F41FC0B7DF49
:1053B0003EDF5F910895D8F7FBCFEA1BFB0B680B2C
:1053C00051F010F40094BBDF662392F3EE0FFF1F41
:1053D000661F7A95CBF7EE27FF27BF015F910895EF
:1053E000EFEFFFEF6FE77FEF5F910895EFEFFFEFD4
:1053F0006FE77FE75F9108955F932BDF703859F374
:10540000903849F301240894791F23F424F30020F1
:105410003AF3ECCF0F921F932F933F934F931127A3
:1054200022279927689FA0018F9F302D410D591F7A
:105430006B9F300D411D591F8E9F27D0BF9F25D0D8
:105440006A9F23D0BE9F1DD0AF9F1BD0AE9F110D72
:10545000291F391F491F591FE32FF42F652F522F82
:105460004F913F912F911F910F9066232AF0550F76
:10547000EE1FFF1F661F02C073954BF2CEDE5F91D9
:105480000895100D211D391F02C0200D311D491F27
:10549000591F08955F93DDDE703821F411200AF45E
:1054A0009FCFA4CF903809F496CF01240894970B8E
:1054B0001BF4D4F30020F3CF792F1F932F933F9346
:1054C0004F931124112722273327A90190E2AE1709
:1054D000BF078607410730F0AE1BBF0B860B410BA1
:1054E000089401C08894551F221F331F111CAA1F46
:1054F000BB1F881F441F9A9551F7F901612D4F91E9
:105500003F912F911F91662332F0550FEE1FFF1F21
:10551000661F7A954BF281DE5F91089599239AF088
:10552000772342F0971748F029F4AE17BF07860794
:1055300020F031F0989488940895989408940895F0
:105540001894889408957723C2F7971798F3A9F7CA
:10555000EA17FB07680788F399F3ECCF109639F048
:10556000A89580ED97E00197F1F71197C9F7089595
:00000001FF
