:100000000C9455000C9416390C9416390C9416392E
:100010000C9416390C9416390C9416390C94163924
:100020000C9416390C9416390C9416390C94163914
:100030000C949C2B0C9416390C9416390C9416398C
:100040000C9416250C9416390C9416390C94163908
:100050000C9416390C9416390C9416390C941639E4
:100060000C9416390C9416390C9416390C941639D4
:100070000C9416390C9416390C9416390C941639C4
:100080000C9416390C9416390C9416390100014F52
:1000900080014F015500723A0155015D80015D01FB
:1000A0005F007240015F0172800011241FBECFEF1C
:1000B000D0E1DEBFCDBFECE8F0E040E017C0B59185
:1000C000A59135912591059107FD0CC095918591DC
:1000D000EF01F92FE82F05900D92A217B307D9F77A
:1000E000FE0104C01D92A217B307E1F7E93AF40735
:0E00F00031F70E9441030C947E38F894FFCF44
:1000FE00000000000000004F000000070007001481
:10010E007F147F14242A7F2A12231308646236492F
:10011E005522400005030000001C22410000412230
:10012E001C0014083E081408083E08080050300051
:10013E00000808080808006060000020100804028B
:10014E003E5149453E00427F4000426151494621A1
:10015E0041454B311814127F1027454545393C4A0D
:10016E00494930017109050336494949360649495D
:10017E00291E0036360000005636000008142241B3
:10018E00001414141414004122140802015109061B
:10019E00324971413E7E1111117E7F494949363EE9
:1001AE00414141227F4141221C7F494949417F09FA
:1001BE000909013E4149493A7F0808087F00417FFD
:1001CE0041002040413F017F081422417F404040C2
:1001DE00407F020C027F7F0408107F3E4141413E6A
:1001EE007F090909063E4151215E7F0919294646BC
:1001FE004949493101017F01013F4040403F1F20E5
:10020E0040201F3F4070403F63140814630708707E
:10021E0008076151494543007F414100020408101F
:10022E00200041417F000402010204404040404052
:10023E00000102040020545454787F484444383856
:10024E0044444420384444487F3854545418087E5B
:10025E000901020C5252523E7F0804047800447D7C
:10026E0040002040443D007F1028440000417F4064
:10027E00007C041804787C0804047838444444381C
:10028E007C14141408081414187C7C080404084800
:10029E0054545420043F4440203C4040207C1C20B9
:1002AE0040201C3C4030403C44281028440C505008
:1002BE00503C4464544C44000836410000007F001A
:1002CE000000413608000201020201000000000099
:1002DE007E1111117E7F494949337F494949367F45
:1002EE0001010103E0514F41FF7F49494941770820
:1002FE007F087741494949367F1008047F7C2112D7
:10030E00097C7F0814224120413F017F7F020C02AD
:10031E007F7F0808087F3E4141413E7F0101017FFA
:10032E007F090909063E4141412201017F01014732
:10033E00281008071C227F221C63140814637F40B8
:10034E004040FF070808087F7F407F407F7F407F47
:10035E0040FF017F4848307F4830007F007F48488B
:10036E0030224149493E7F083E413E462919097FC8
:10037E0020545454783C4A4A49317C545428007CC9
:10038E000404040CE0544C44FC38545454186C10BF
:10039E007C106C44445454287C2010087C7C4122F0
:1003AE00117C7C1028440020443C047C7C081008FE
:1003BE007C7C1010107C38444444387C0404047C4B
:1003CE007C14141408384444442004047C04040CA3
:1003DE005050503C3048FC483044281028447C4053
:1003EE004040FC0C1010107C7C407C407C7C407C9F
:1003FE0040FC047C5050207C5050207C7C5050207F
:10040E000028445454387C10384438085434147C32
:10041E00CED8C8C1CAC02100C2FBE1F0E0EDEE208B
:10042E00E1EEEBFCF8E500EEE4EDEEE920ECEEE4B7
:10043E00E5EBE82E0020002020200025640020207F
:10044E00003C003E0020554B2D313033200020550E
:10045E004B2D323033200020554B2D3330332000BE
:10046E002020D1E5F2FC202000C2E5E4F3F9E8E912
:10047E002100C2E5E4EEECFBE93100C2E5E4EEEC6E
:10048E00FBE93200D1D2C0D0D200D3F1F2E0EDEED2
:10049E00E2EAE800D0E5E6E8EC202D20FDEAEEEDFC
:1004AE00EEEC2E202000D0E5E6E8EC202D20F1F237
:1004BE00E0EDE4E0F0F22E00D0E5E6E8EC202D20B1
:1004CE00E6E0F0EAEE2E20202000C7E0E4E0ED208A
:1004DE00EDE0E3F0E5E220202020F12A00D1D2CE9B
:1004EE00CF00C8E4E5F220EDE0E1EEF020F2E5EF1A
:1004FE00EBEEF2FB00C8E4E5F220F1E1F0EEF120C4
:10050E00F2E5EFEBEEF2FB00D2E5ECEFE5F0E0F218
:10051E00F3F0E020EDE0E3F0E5E2E03A00DDEAEEB4
:10052E00EDEEEC202000D1F2E0EDE4E0F0F200C6BA
:10053E00E0F0EAEE20202000CFEEE3EEE4EEE7E07E
:10054E00E2E8F1E8ECEEF1F2FC3A00C2EAEBFEF77B
:10055E00E8F2FC2000C2FBEAEBFEF7E8F2FC00201A
:10056E00D1D2CECF2000CFF0EEE4F3E2EAE000CF1E
:10057E00EBE0ECFF00CAEBE0EFE0ED00C7E0EFF3DD
:10058E00F1EA00CEE6E8E4E0EDE8E520E7E0EFF39F
:10059E00F1EAE000CEF8E8E1EAE020C531002020E3
:1005AE0020202020202000CEF8E8E1EAE020C5320D
:1005BE0000CEF8E8E1EAE020C53300CEF8E8E1EA43
:1005CE00E020C53400CEF8E8E1EAE020C53500CEE3
:1005DE00F8E8E1EAE020C53600CEF8E8E1EAE020EE
:1005EE00C53700CEF8E8E1EAE020C53800CEF8E8DD
:1005FE00E1EAE020C53900CEF8E8E1EAE020C531B5
:10060E003000CEF8E8E1EAE020C5313100D1E5F264
:10061E00FC002020C2E5E4F3F9E8E92020002020C8
:10062E00C2E5E4EEECFBE920312020002020C2E5FB
:10063E00E4EEECFBE920322020004F6E5F4F666641
:10064E0031004F6E5F4F666630005761744C640028
:10065E0068076C094C836A9074A07AC00080688821
:06066E0000846C82008193
:07067400286E756C6C290073
:06067B00286E696C2900E5
:10068200CF93DF93CDB7DEB728970FB6F894DEBFCE
:100692000FBECDBF83E882B983B98FEF81BB12BA97
:1006A2001092610099EF9093620084BB8ABB0E9412
:1006B200B03683EC99E00197F1F700C000000E9488
:1006C2004E3683ED90E30197F1F700C0000017BAB0
:1006D20080E888BB1092640088E180936500B79936
:1006E20006C081E090E090935A0180935901809175
:1006F200630083FD06C081E090E0909358018093EF
:1007020057018091630084FD06C081E090E09093E0
:100712005601809355018091590190915A01009799
:1007220071F02091570130915801232B41F0209113
:10073200550130915601232B11F40E945634009733
:1007420071F02091550130915601232B41F02091F7
:10075200570130915801232B11F40E9456342091F5
:10076200570130915801232B51F0209155013091BE
:100772005601232B21F0892B11F40E9456348EB599
:1007820088608EBD87B7806187BF80E090E89BBD9F
:100792008ABD8EB584608EBD65E070E080E80E94FF
:1007A2009B3890E090930201809301018F3F910565
:1007B20031F482E390E0909302018093010164E0BE
:1007C20070E080E80E949B3890E09093140180933F
:1007D20013018F3F910521F410921401109213011D
:1007E20063E070E080E80E949B3890E090930801FB
:1007F200809307018F3F910521F410920801109216
:10080200070162E070E080E80E949B3890E09093DC
:100812000F0180930E018F3F910531F481E090E04A
:1008220090930F0180930E0161E070E080E80E94D6
:100832009B3890E09093400180933F018F3F910558
:1008420021F41092400110923F0160E070E080E8D4
:100852000E949B3890E090933E0180933D018F3F30
:10086200910521F410923E0110923D010E9405393A
:100872000E94D43478949FED23E964E091502040A3
:100882006040E1F700C000008091590190915A0147
:10089200009731F02091570130915801232B41F0FC
:1008A200009761F42091570130915801232B31F0C8
:1008B2002091550130915601232B71F0892BA1F41F
:1008C2008091570190915801892B71F480915501C3
:1008D20090915601892B41F010924E0110924D01D8
:1008E2000E94E2170E944D3180913F019091400198
:1008F200019749F080913D0190913E01813091052F
:1009020011F0029751F481E090E090934E018093B0
:100912004D010E94E2170E944D3180915901909140
:100922005A01892B11F18091550190915601892B21
:10093200E1F08091570190915801892BB1F080919B
:100942003F0190914001892B81F480913D0190916A
:100952003E01892B51F481E090E090934E01809307
:100962004D010E9416310E94DD300E94EF2F8091CE
:10097200530190915401019761F48091510190913A
:100982005201029731F40E9B04C00E94D9220E99A3
:10099200FECF0D9B08C080915301909154010197A5
:1009A20011F40E9483310C9B08C0809153019091F5
:1009B2005401019711F40E944D318091530190919D
:1009C2005401029761F40E9B0AC0809151019091EB
:1009D2005201019721F40E94E2170E99FECF8091F5
:1009E200530190915401029751F50B9B28C08091BD
:1009F200510190915201019711F580910701909157
:100A02000801892BE1F460910101709102016535C1
:100A12007105A8F46F5F7F4F70930201609301012B
:100A220085E090E00E944E380E94E4327FE58AEE33
:100A320090E0715080409040E1F700C0000080914A
:100A4200530190915401029751F50A9B28C080915D
:100A5200510190915201019711F5809107019091F6
:100A62000801892BE1F460910101709102016A3160
:100A72007105A8F061507109709302016093010140
:100A820085E090E00E944E380E94E4322FE56AEE43
:100A920070E0215060407040E1F700C0000080919A
:100AA200170190911801803591057CF480915301D2
:100AB20090915401029749F4809151019091520111
:100AC200019719F40D990E94A43080911701909119
:100AD2001801803591057CF4809153019091540165
:100AE200029749F48091510190915201029719F4B1
:100AF2000C990E946B3080911701909118018035FA
:100B020091058CF58091530190915401029759F50A
:100B12008091510190915201029729F5809107012C
:100B220090910801892BF9F40E9B1DC081E090E0A1
:100B3200909308018093070161E083E090E00E94B6
:100B42004E3886E08093100187E080931F0149E0D0
:100B520063E675E080E00E948B320E946B300E9457
:100B6200D9220E99FECF80911701909118018035FC
:100B720091057CF58091530190915401029749F5BA
:100B82008091510190915201029719F580910701CC
:100B9200909108010197E9F40E9B1BC01092080185
:100BA2001092070160E083E090E00E944E3886E0F8
:100BB2008093100187E080931F0149E069E575E0A9
:100BC20080E00E948B320E946B300E94D9220E99E3
:100BD200FECF8091530190915401029719F58091B3
:100BE2005101909152010197E9F48091070190918E
:100BF20008010197B9F480910E0190910F010197BC
:100C020089F40B9B0FC082E090E090930F018093D8
:100C12000E0162E082E090E00E944E380E94D922EA
:100C22000B99FECF8091530190915401029719F5CF
:100C320080915101909152010197E9F4809107014D
:100C4200909108010197B9F480910E0190910F01E2
:100C5200029789F40B9B0FC083E090E090930F0101
:100C620080930E0163E082E090E00E944E380E9481
:100C7200D9220B99FECF8091530190915401029792
:100C820019F580915101909152010197E9F48091F7
:100C92000701909108010197B9F480910E0190919A
:100CA2000F01039789F40A9B0FC082E090E09093B2
:100CB2000F0180930E0162E082E090E00E944E38C4
:100CC2000E94D9220A99FECF80915301909154013A
:100CD200029719F580915101909152010197E9F41F
:100CE20080910701909108010197B9F480910E015A
:100CF20090910F01029789F40A9B0FC081E090E066
:100D020090930F0180930E0161E082E090E00E94D7
:100D12004E380E94D9220A99FECF809153019091B8
:100D220054010197C1F480915101909152010197B0
:100D320091F48091130190911401892B61F48091B7
:100D4200410190914201019731F40E9B04C00E942F
:100D520000220E99FECF8091530190915401019788
:100D6200F1F480915101909152010197C1F4809167
:100D7200130190911401892B91F48091410190917A
:100D82004201892B61F40E9B0AC081E090E09093AE
:100D92001401809313010E94E2170E99FECF8091F5
:100DA2005301909154010197C1F4809151019091A6
:100DB2005201019791F480911301909114010197CE
:100DC20061F40E9B0AC010921401109213010E944A
:100DD200E2170E94B9320E99FECF80915301909191
:100DE20054010397029790F480911301909114019A
:100DF200019761F40E9B0AC0109214011092130124
:100E02000E94E2170E94B9320E99FECF609113013F
:100E1200709114018091090190910A016817790774
:100E220041F070930A016093090184E090E00E940E
:100E32004E388091070190910801892BC1F0809171
:100E4200170190911801813591058CF08091130161
:100E520090911401892B59F0109208011092070108
:100E620060E083E090E00E944E380E94E21703990E
:100E72003FC08091130190911401892BC9F10E9406
:100E8200B9320E94073881E090E090934C01809340
:100E92004B011092600110925F0180915301909179
:100EA20054010397E1F4809151019091520101970D
:100EB200B1F48091130190911401019781F40E9B7A
:100EC2000EC0109214011092130110926001109240
:100ED2005F010E94B9320E94E2170E99FECF039978
:100EE20021C08091130190911401892BB1F61AC08F
:100EF20080914B0190914C01892BA1F0039B12C070
:100F02008091130190911401892B61F010924C0190
:100F120010924B0181E090E09093600180935F0119
:100F22000E94E21705990BC0809113019091140160
:100F3200892B29F00E94B9320E940C35FFCF809193
:100F4200590190915A01009741F120915701309136
:100F52005801232B11F52091550130915601232B75
:100F6200E1F42091130130911401232BB1F0079B7E
:100F720014C02091470130914801232B71F00E9447
:100F8200B9320E9427351092600110925F0160E031
:100F920084E090E00E944E38FFCF009741F120910B
:100FA200570130915801232B11F5209155013091B1
:100FB2005601232BE1F42091130130911401232BCC
:100FC200B1F0079914C02091490130914A01232BB5
:100FD20071F00E94B9320E94423510926001109263
:100FE2005F0160E084E090E00E944E38FFCF0097FE
:100FF20041F52091570130915801232B11F1209195
:10100200550130915601232BE1F4209113013091C7
:101012001401232BB1F0049B14C02091470130919D
:101022004801232B71F00E94B9320E945D35109263
:10103200600110925F0160E084E090E00E944E380F
:10104200FFCF009741F52091570130915801232B92
:1010520011F12091550130915601232BE1F4209199
:10106200130130911401232BB1F0049914C0209183
:10107200490130914A01232B71F00E94B9320E943A
:1010820078351092600110925F0160E084E090E098
:101092000E944E38FFCF009741F5209157013091C1
:1010A2005801232B11F12091550130915601232B28
:1010B200E1F42091130130911401232BB1F0069B2E
:1010C20014C02091430130914401232B71F00E94FE
:1010D200B9320E9493351092600110925F0160E074
:1010E20084E090E00E944E38FFCF009741F52091B6
:1010F200570130915801232B11F120915501309164
:101102005601232BE1F42091130130911401232B7A
:10111200B1F0069914C02091450130914601232B6C
:1011220071F00E94B9320E94AE35109260011092A5
:101132005F0160E084E090E00E944E38FFCF0097AC
:1011420061F42091570130915801232B31F4209101
:10115200550130915601232B31F420914D013091EC
:101162004E01232BE1F02091130130911401232B26
:10117200B1F0069B14C02091430130914401232B0E
:1011820071F00E94B9320E94E4351092600110920F
:101192005F0160E084E090E00E944E38FFCF892B2F
:1011A20061F48091570190915801892B31F480911B
:1011B200550190915601892B31F480914D01909106
:1011C2004E01892BE1F08091130190911401892B3A
:1011D200B1F0069914C08091450190914601892B86
:1011E20071F00E94B9320E94FF3510926001109294
:1011F2005F0160E084E090E00E944E38FFCF809172
:101202001101909112018436910580F02091130111
:1012120030911401232B51F00E94B9320E94C9353A
:1012220060E084E090E00E944E38FFCF20910701F9
:1012320030910801232B79F52091010130910201AF
:10124200A9014A50510948175907A0F0409141019C
:1012520050914201452B71F441E050E0509342011C
:10126200409341015093600140935F0110925C01F1
:1012720010925B018217930770F080914101909167
:101282004201892B41F010924201109241010E94C9
:10129200B9320E94E217609111017091120180E04F
:1012A20090E00E942E306B017C01609101017091EF
:1012B200020180E090E00E942E302DEC3CEC4CE8E4
:1012C2005FE30E9409399B01AC01C701B6010E948C
:1012D200003988231CF082B3806282BB60911101C5
:1012E2007091120180E090E00E942E306B017C012F
:1012F200609101017091020180E090E00E942E3025
:101302002AE939E949E95FE30E9409399B01AC0105
:10131200C701B6010E94FB3818161CF082B38F7DFC
:1013220082BB8091070190910801892B09F499C031
:1013320080910E0190910F01019709F092C04091A6
:10134200170150911801CA010F9720E030E0B9014E
:10135200681B790BCB01880F991F44515109241B3B
:10136200350BB901660F771F8B016635710514F0D5
:1013720005E510E00E30110514F40FE010E08B3497
:10138200910514F08BE490E08931910514F489E120
:1013920090E020911101309112018217930780F0A1
:1013A2008091410190914201892B51F481E090E0BA
:1013B20090934201809341019093600180935F0179
:1013C2002017310770F08091410190914201892BE1
:1013D20041F010924201109241010E94B9320E94E2
:1013E200E217609111017091120180E090E00E9479
:1013F2002E304B015C01B801110F880B990B0E9432
:1014020030306B017C012DEC3CEC4CE85FE30E9438
:1014120009399B01AC01C501B4010E94003988233E
:101422001CF082B3806282BB609111017091120143
:1014320080E090E00E942E304B015C012AE939E9FC
:1014420049E95FE3C701B6010E9409399B01AC017A
:10145200C501B4010E94FB3818161CF082B38F7DBF
:1014620082BB8091070190910801892B09F493C0F6
:1014720080910E0190910F01029709F08CC060914A
:101482001701709118016F50710971956195710979
:10149200660F771FCB010F968B01075E1F4F063534
:1014A200110514F005E510E00E30110514F40FE0FB
:1014B20010E08B34910514F08BE490E089319105B2
:1014C20014F489E190E02091110130911201821708
:1014D200930780F08091410190914201892B51F450
:1014E20081E090E0909342018093410190936001EA
:1014F20080935F012017310770F080914101909134
:101502004201892B41F010924201109241010E9446
:10151200B9320E94E217609111017091120180E0CC
:1015220090E00E942E304B015C01B801110F880B34
:10153200990B0E9430306B017C012DEC3CEC4CE8A5
:101542005FE30E9409399B01AC01C501B4010E940D
:10155200003988231CF082B3806282BB6091110142
:101562007091120180E090E00E942E304B015C01EC
:101572002AE939E949E95FE3C701B6010E9409395D
:101582009B01AC01C501B4010E94FB3818161CF086
:1015920082B38F7D82BB8091070190910801892BD4
:1015A20009F499C080910E0190910F01039709F0FF
:1015B20092C04091170150911801CA01499720E049
:1015C20030E0B901681B790BCB01880F991F4E518E
:1015D2005109241B350BB901660F771F8B01663544
:1015E200710514F005E510E00E30110514F40FE05A
:1015F20010E08B34910514F08BE490E08931910571
:1016020014F489E190E020911101309112018217C6
:10161200930780F08091410190914201892B51F40E
:1016220081E090E0909342018093410190936001A8
:1016320080935F012017310770F0809141019091F2
:101642004201892B41F010924201109241010E9405
:10165200B9320E94E217609111017091120180E08B
:1016620090E00E942E304B015C01B801110F880BF3
:10167200990B0E9430306B017C012DEC3CEC4CE864
:101682005FE30E9409399B01AC01C501B4010E94CC
:10169200003988231CF082B3806282BB6091110101
:1016A2007091120180E090E00E942E304B015C01AB
:1016B2002AE939E949E95FE3C701B6010E9409391C
:1016C2009B01AC01C501B4010E94FB3818161CF045
:1016D20082B38F7D82BB8091590190915A01892BEF
:1016E20009F46AC08091570190915801892B09F041
:1016F20063C08091550190915601892B09F05CC01D
:101702008091130190911401892B09F455C08091A5
:10171200410190914201892B09F44EC080915F01F1
:1017220090916001892B09F447C082B3886082BB23
:101732008091530190915401039711F00E9400226D
:1017420080915D0190915E018A30910531F421E032
:1017520030E03093480120934701089761F41092DA
:1017620048011092470183ED90E30197F1F700C021
:1017720000000E945C3380915D0190915E010497AC
:1017820031F482B3806182BB82B3846082BB809178
:101792005D0190915E01019779F482B38B7F82BBE8
:1017A20081E090E090934A01809349011092600198
:1017B20010925F010E94E2178091590190915A01A3
:1017C200892B09F088C08091570190915801892B8B
:1017D20009F481C08091550190915601892B09F03D
:1017E2007AC08091130190911401892B09F473C07E
:1017F2008091410190914201892B09F46CC0809142
:101802005F0190916001892B09F465C080915301B9
:1018120090915401039711F00E94002280915D0182
:1018220090915E018431910531F421E030E03093F2
:10183200440120934301439779F41092440110929A
:10184200430182B3886082BB83ED90E30197F1F795
:1018520000C000000E945C3380915D0190915E01A6
:101862008A30910531F421E030E030934801209331
:101872004701089761F4109248011092470183EDE5
:1018820090E30197F1F700C000000E94823380913B
:101892005D0190915E01049731F482B3806482BB52
:1018A20082B3846082BB80915D0190915E01019759
:1018B20091F482B38B7F82BB82B3806882BB81E06A
:1018C20090E090934A018093490110926001109236
:1018D2005F010E94E2178091590190915A01892B70
:1018E20061F48091570190915801892B31F48091D4
:1018F200550190915601892B39F480913F019091C5
:101902004001892B09F442C0809113019091140186
:10191200892BE1F18091410190914201892BB1F132
:1019220080915F0190916001892B81F18091530137
:1019320090915401039711F00E94002280915D0161
:1019420090915E018330910531F421E030E03093D3
:10195200440120934301029739F4109244011092FA
:10196200430182B3806482BB80915D0190915E01EC
:10197200019761F481E090E09093460180934501E4
:101982001092600110925F010E94E21780913D0166
:1019920090913E01019709F04AC080915B019091BC
:1019A2005C018438934008F442C080911301909105
:1019B2001401892BE1F18091410190914201892B1F
:1019C200B1F180915F0190916001892B81F1809149
:1019D200530190915401039711F00E9400228091CB
:1019E2005D0190915E018330910531F421E030E098
:1019F2003093440120934301029739F41092440139
:101A02001092430182B3806482BB80915D01909108
:101A12005E01019761F481E090E09093460180932A
:101A220045011092600110925F010E94E2178091BD
:101A32003D0190913E01029709F04AC080915B01FD
:101A420090915C018036994008F442C08091130164
:101A520090911401892BE1F1809141019091420111
:101A6200892BB1F180915F0190916001892B81F105
:101A72008091530190915401039711F00E9400222A
:101A820080915D0190915E018330910531F421E0F6
:101A920030E03093440120934301029739F41092CD
:101AA20044011092430182B3806482BB80915D0144
:101AB20090915E01019761F481E090E0909346017C
:101AC200809345011092600110925F010E94E2171B
:101AD20080914D0190914E01892B09F04DC1809169
:101AE2007101873009F0EAC00CC0822F90E0FC013E
:101AF200EC5DFE4F3081FC01E45DFE4F30832F5FD1
:101B020001C020E0273088F3809153019091540165
:101B1200019701F580915101909152010197D1F401
:101B22008091130190911401892BA1F480914101BC
:101B320090914201019771F46CE271E080E807E054
:101B420010E028E436E040E00E94EE31892B11F4E7
:101B52000E9400228091530190915401019731F526
:101B62008091510190915201019701F580911301E9
:101B720090911401892BD1F48091410190914201FD
:101B8200892BA1F46CE271E080E807E010E028E420
:101B920036E040E00E94EE31892B41F481E090E092
:101BA20090931401809313010E94E21780915301D4
:101BB20090915401019701F5809151019091520148
:101BC2000197D1F480911301909114010197A1F42E
:101BD2006CE271E080E807E010E020E536E040E0EA
:101BE2000E94EE31892B41F41092140110921301DC
:101BF2000E94E2170E94B9328091530190915401E0
:101C020003970297D0F480911301909114010197E8
:101C1200A1F46CE271E080E807E010E020E536E034
:101C220040E00E94EE31892B41F41092140110928F
:101C320013010E94E2170E94B9326CE271E080E85F
:101C420005E010E028E536E040E00E94EE31892B05
:101C520069F032C0282F30E0F901EC5DFE4F90812F
:101C6200F901E050FF4F90838F5F01C085E087301C
:101C720088F3CE0101969F938F9389E494E0A0E0CC
:101C8200AF939F938F9385E091E0A0E8AF939F93EA
:101C92008F930E94CC3369818A8160930101809382
:101CA200020185E090E00E944E380E94E2170FB6D2
:101CB200F894DEBF0FBECDBF0E94F63880911301AB
:101CC2009091140120910C0130910D01821793071C
:101CD200B1F090930D0180930C01892B29F068E4F7
:101CE20076E080E00E9436378091130190911401D2
:101CF200892B29F460E576E080E00E9436378091F6
:101D02000101909102012091030130910401821797
:101D1200930791F190930401809303019F938F9312
:101D220089E494E0A0E0AF939F938F930F2EF0E2AB
:101D3200EF2EF1E0FF2EF02DFF92EF920E94B237CC
:101D420028E536E040E086E0F9018E010F5F1F4F83
:101D5200D801742F0E94413818861F82A70160E8BB
:101D6200C8010E946736B80180E80E9436370FB674
:101D7200F894DEBF0FBECDBF0D9B10C08091530102
:101D820090915401059751F480914F019091500127
:101D9200019721F40E94812E0D99FECF0D9B10C058
:101DA2008091530190915401059751F480914F0114
:101DB20090915001029721F40E94CF2E0D99FECFEF
:101DC2000C9B10C08091530190915401059751F4DE
:101DD20080914F0190915001039721F40E94812E2E
:101DE2000C99FECF0C9B10C080915301909154012D
:101DF200059751F480914F0190915001029721F47F
:101E02000E94DD300C99FECF0E9B29C080915301B8
:101E120090915401059719F580914F0190915001CD
:101E22000197E9F480913F0190914001892BB9F427
:101E320061E081E090E00E944E3881E090E0909372
:101E4200400180933F0190931401809313011092FB
:101E5200600110925F010E94E2170E944D310E9BB9
:101E620023C080915301909154010597E9F4809128
:101E72004F01909150010297B9F461E080E090E047
:101E82000E944E3881E090E090933E0180933D01A4
:101E920090931401809313011092600110925F01DC
:101EA2000E94E2170E944D310E9902C00C94B804B0
:101EB2008091530190915401059711F00C94B8044C
:101EC20080914F0190915001039711F00C94B80446
:101ED20062E080E090E00E944E3882E090E09093D1
:101EE2003E0180933D0181E090E090931401809344
:101EF20013011092600110925F010E94E2170E948A
:061F02004D310C94B804FF
:101F0800A2E9B1E0EAE8FFE00C94F0347C01590161
:101F1800C457DE4F488359836A83CC58D140C15790
:101F2800DE4F19821882CF58D140612C712C6E0176
:101F38002EE7C21A2EEFD20A8CE891E08C0F9D1F73
:101F48000397CF56DE4F99838883C159D140C45730
:101F5800DE4F2881CC58D140C357DE4F9881CD58E9
:101F6800D140C257DE4F8881CE58D140E22FF92F99
:101F7800949187FD9081992309F409C48AE0D601D8
:101F88001D928A95E9F782E091E08C0F9D1FF6017A
:101F980097838683A0E8B0E0B187A087BE01645725
:101FA8007E4FC7010E9457328C01C457DE4F88818B
:101FB8009981AA81CC58D140FC012491A7FD2081A8
:101FC800211116C0C157DE4F28813981CF58D14021
:101FD800020F131FC157DE4F19830883CF58D14012
:101FE800FC012491A7FD2081253209F0B9C34FC017
:101FF800253241F3C7010E94A32C4C01019609F137
:10200800C457DE4F2881CC58D140C357DE4F888152
:10201800CD58D140C257DE4F9881CE58D140E22FDB
:10202800F82F849197FD8081082E000C990B881653
:10203800990639F0B701C4010E9497348EEF9FEFDB
:102048009AC3C157DE4F88819981CF58D1400196F4
:10205800C157DE4F99838883CF58D140C457DE4F8C
:1020680088819981AA81CC58D1400196A11DC45775
:10207800DE4F88839983AA83CC58D140BE01645728
:102088007E4FC7010E945732080F191F8ECF9C013F
:102098004A2F2F5F3F4F4F4FC457DE4F2883398356
:1020A8004A83CC58D140F60115821482F901249153
:1020B80047FD20812A3261F40296A11DC457DE4FE4
:1020C80088839983AA83CC58D14001E010E002C0EC
:1020D80000E010E0C457DE4F688179818A81CC58CE
:1020E800D1400E94662FD60115969C938E93149723
:1020F800C457DE4F288139814A81CC58D140F90133
:10210800849147FD8081082E000C990BC0970A978F
:1021180058F42F5F3F4F4F4FC457DE4F2883398302
:102128004A83CC58D140E4CFCE0184579E4F0E94B9
:10213800E42D582EC457DE4F2881CC58D140C357C0
:10214800DE4F8881CD58D140C257DE4F9881CE5896
:10215800D140E22FF82F849197FD8081082E000C42
:10216800990B0E94C738883691052CF5853691055C
:102178000CF0FBC08136910509F4F7C04CF48532A8
:10218800910509F477C18B35910509F4A2C1D8C22C
:102198008336910509F411C18436910509F0D0C23E
:1021A8009E0121573E4FA601BE016F5F7F4FC701B9
:1021B8000E940E3325C08037910509F479C0ACF42C
:1021C8008E36910509F49EC00CF041C08936910500
:1021D80009F0B6C29E0121573E4FA601BE016F5FAE
:1021E8007F4FC7010E940D210BC08537910521F152
:1021F80088379105B9F18337910509F0A1C20EC15D
:1022080097FDB9C2C457DE4F88819981AA81CC58FD
:10221800D1400196A11DC457DE4F88839983AA83B4
:10222800CC58D1400115110509F050C1652D70E059
:10223800950141E050E061C09E0121573E4FA60143
:10224800BE016F5F7F4FC7010E94353315C09E01E5
:1022580021573E4FA601BE016F5F7F4FC7010E9405
:1022680092290AC09E0121573E4FA601BE016F5F09
:102278007F4FC7010E94C42597FD7DC2C457DE4F1A
:1022880088819981AA81CC58D1400196A11DC45753
:10229800DE4F88839983AA83CC58D1400115110554
:1022A80009F014C1652D70E0950140E050E025C0AB
:1022B8009E0121573E4FA601BE016F5F7F4FC701A8
:1022C8000E94C42597FD57C2C457DE4F8881998163
:1022D800AA81CC58D1400196A11DC457DE4F8883EE
:1022E8009983AA83CC58D1400115110509F0EEC095
:1022F800950140E050E060EF70E0CE0101960E9449
:10230800102739C2C457DE4F88819981AA81CC58D9
:10231800D1400196A11DC457DE4F88839983AA83B3
:10232800CC58D140C057DE4F9881C059D140C157D1
:10233800DE4F2881CF58D140892F880F880B2983F9
:102348009A838B838C838D838E838F8388870115F3
:10235800110509F0BBC0652D70E0950140E050E023
:10236800CE0101960E941027B1C09E0121573E4F11
:10237800A601BE016F5F7F4FC7010E94133997FD09
:10238800FAC1C457DE4F88819981AA81CC58D140BF
:102398000196A11DC457DE4F88839983AA83CC5820
:1023A800D1400115110509F091C0652D70E0A50116
:1023B800CE0101960E94B931DEC1B0E85B12C0C1FE
:1023C800F60184819581892B21F481E090E0958341
:1023D8008483C457DE4F88819981AA81CC58D14023
:1023E8000196A11DC457DE4F88839983AA83CC58D0
:1023F800D140012B59F4D501ED91FC911197CF01F2
:1024080002968D939C930081118102C000E010E038
:102418009E0121573E4F40E050E027C0B0E85B12D4
:102428008FC1C457DE4F88819981AA81CC58D14089
:102438000196A11DC457DE4F88839983AA83CC587F
:10244800D140012B59F4D501ED91FC911197CF01A1
:1024580002968D939C930081118102C000E010E0E8
:102468009E0121573E4F41E050E0B601C7010E944E
:10247800D12A81C1B0E85B1263C1C457DE4F88819D
:102488009981AA81CC58D1400196A11DC457DE4F2D
:1024980088839983AA83CC58D140C7010E94A32C72
:1024A8008532910581F4C157DE4F88819981CF58D3
:1024B800D1400196C157DE4F99838883CF58D140C8
:1024C80081E090E058C1B7010E94973480E090E025
:1024D80052C1E0E85E1234C1012B59F4D501ED91E7
:1024E800FC911197CF0102968D939C9300811181E5
:1024F80002C000E010E0C457DE4F88819981AA81AC
:10250800CC58D1409C014A2F2F5F3F4F4F4FC457A3
:10251800DE4F288339834A83CC58D140F90124916E
:1025280047FD20812E3561F40296A11DC457DE4F68
:1025380088839983AA83CC58D1409924939401C065
:10254800912C41E051E0692D70E0CE0101960E9486
:1025580089381982C457DE4F88819981AA81CC585D
:10256800D140FC012491A7FD20812D3279F40196F8
:10257800A11DC457DE4F88839983AA83CC58D140C4
:1025880081E089198FA751E0591933C02D35D9F742
:102598000196A11DC457DE4F88839983AA83CC581E
:1025A800D14081E08919A0968FAFA097ECCF8823FE
:1025B80009F476C08D3259F1C457DE4F888199816C
:1025C800AA81CC58D140FC012491A7FD2081E2E0EA
:1025D800F0E0EC0FFD1FE20FF11D27FDFA95508387
:1025E8000196A11DC457DE4F88839983AA83CC58CE
:1025F800D140C457DE4F288139814A81CC58D14017
:10260800F901849147FD80818D3589F649C0C1570C
:10261800DE4F6881CF58D140C057DE4F9881C059EE
:10262800D140CF56DE4F8881C159D140E62FF92FCE
:10263800949187FD9081992309F4BECF9D3509F4C3
:10264800BBCF2F5F3F4F4F4FC457DE4F288339838F
:102658004A83CC58D140CF56DE4FE881F981C15921
:10266800D140608181819281E62FF82F849197FD76
:102678008081082E000C990BF901649147FD608157
:10268800062E000C770B861797070CF095CF01964E
:10269800E1E0F0E0EC0FFD1FE80FF91F5083ECCFED
:1026A8000115110511F118012101401A510AC7013C
:1026B8000E94A32C4C01E2E0F0E0EC0FFD1FE80FB4
:1026C800F91F8081882371F1D1018D921D01C157B5
:1026D800DE4F88819981CF58D1400196C157DE4F8E
:1026E80099838883CF58D140DFCFC7010E94A32C9C
:1026F8004C01E2E0F0E0EC0FFD1FE80FF91F8081CC
:10270800882371F0C157DE4F88819981CF58D14015
:102718000196C157DE4F99838883CF58D140E5CFC2
:10272800412C512CB701C4010E9497344114510423
:1027380039F00115110521F0F801E40DF51D10829D
:10274800C457DE4F88819981AA81CC58D14001961F
:10275800A11DC457DE4F88839983AA83CC58D140E2
:1027680081E090E0BFEF8B169B0611F080E090E0CF
:1027780091958195910997FD03C0680E791EE7CB65
:102788008F3FEFEF9E0719F46114710409F0C3013C
:0A279800CE56DE4FE2E10C941A3633
:1027A200A3EAB0E0E7EDF3E10C94F0344C015901F7
:1027B200C756DF4F488359836A83C959D040212CB9
:1027C200312C6E012BE8C20ED11C85E2782E260137
:1027D20030E8632ECE018D569F4FC456DF4F99834A
:1027E2008883CC59D0409C0140E8CF55DF4F2883E5
:1027F20039834A83C15AD040C756DF4F4881C959ED
:10280200D040C656DF4F5881CA59D040C556DF4F17
:102812006881CB59D040FA01849167FD8081882379
:1028220009F4C9C3CF57DF4F19821882C158D0406B
:102832008FEF9FEFCD57DF4F99838883C358D040E6
:10284200CB57DF4F19821882C558D040A1E0B0E0C3
:10285200AC0FBD1FC957DF4FB983A883C758D040FB
:10286200E0E8F0E0C757DF4FF983E883C958D0406A
:10287200CA01A62FE12CF12CFC012491A7FD208195
:1028820021111BC0E114F10401F19701C4010E945E
:102892002332C756DF4F88819981AA81C959D04016
:1028A2008E0D9F1DA11DF7FCAA95C756DF4F888389
:1028B2009983AA83C959D04008C00196A11D253227
:1028C20009F3FFEFEF1AFF0AD7CFC756DF4F888110
:1028D2009981AA81C959D040FC012491A7FD208188
:1028E200253209F056C39C014A2F2F5F3F4F4F4FAD
:1028F200C256DF4F288339834A83CE59D040C75608
:10290200DF4F288339834A83C959D040C756DF4FE6
:1029120088819981AA81C959D040FC012491A7FDDF
:1029220020812B3241F4CF57DF4F28813981C158A2
:10293200D04024600BC02C32CCF02D3259F5CF5749
:10294200DF4F28813981C158D0402160CF57DF4FF6
:1029520039832883C158D0400196A11DC756DF4F45
:1029620088839983AA83C959D040D0CF203241F4B9
:10297200CF57DF4F28813981C158D0402860E6CF38
:10298200233291F4CF57DF4F28813981C158D0408B
:102992002061DCCF203341F4CF57DF4F28813981CA
:1029A200C158D0402260D2CF2A3299F50196A11D9A
:1029B200C756DF4F88839983AA83C959D040D5016E
:1029C200ED91FC911197CF0102968D939C9380819A
:1029D2009181CB57DF4F99838883C558D04097FFA9
:1029E2003EC0CF57DF4F28813981C158D040B1E076
:1029F2002B27CF57DF4F39832883C158D040919579
:102A020081959109CB57DF4F99838883C558D04070
:102A120026C0BC018A2F0E94662FCB57DF4F9983B5
:102A22008883C558D040C756DF4F288139814A81F3
:102A3200C959D040F901849147FD8081082E000CCC
:102A4200990BC0970A9758F42F5F3F4F4F4FC756C5
:102A5200DF4F288339834A83C959D040E4CFCF5707
:102A6200DF4F88819981C158D04080FF07C08D7F98
:102A7200CF57DF4F99838883C158D040C756DF4F65
:102A820088819981AA81C959D040FC012491A7FD6E
:102A920020812E3209F058C0CD57DF4F198218829B
:102AA200C358D0409C014A2F2F5F3F4F4F4FC7560C
:102AB200DF4F288339834A83C959D040F9015491A1
:102AC20047FD50815A32D1F40296A11DC756DF4FFD
:102AD20088839983AA83C959D040D501ED91FC918D
:102AE2001197CF0102968D939C9380819181CD574E
:102AF200DF4F99838883C358D04026C0842FB90101
:102B02000E94662FCD57DF4F99838883C358D040E8
:102B1200C756DF4F288139814A81C959D040F9010E
:102B2200849147FD8081082E000C990BC0970A976B
:102B320058F42F5F3F4F4F4FC756DF4F28833983DB
:102B42004A83C959D040E4CFCE0187569F4F0E9495
:102B5200E42D182FC756DF4F2881C959D040C656D9
:102B6200DF4F8881CA59D040C556DF4F9881CB5973
:102B7200D040E22FF82F849197FD8081082E000C1F
:102B8200990B0E94C7388936910509F45AC0B4F4EA
:102B92008336910509F466C144F48532910509F43E
:102BA200A1C18136910529F1B3C18436910509F499
:102BB20048C0883691050CF42DC1AAC18037910511
:102BC20009F4CBC04CF48E36910509F419C18F3645
:102BD200910509F47CC09CC18537910509F454C064
:102BE2008837910509F496C08337910509F090C1A1
:102BF20058C1612F70E0A501C6010E947734892B6C
:102C020009F4B7C1C756DF4F88819981AA81C95992
:102C1200D0409C014A2F2F5F3F4F4F4FC756DF4F87
:102C2200288339834A83C959D040FC012491A7FDE6
:102C32002081A601BE016F577F4FC4010E94103947
:102C420095C1612F70E0950141E050E0C6010E94FC
:102C52005D24892B09F48DC1C756DF4F8881998184
:102C6200AA81C959D0400196A11DC756DF4F88835A
:102C72009983AA83C959D040A601BE016F577F4FDD
:102C8200C4010E949E2372C1612F70E0950140E051
:102C920050E0C6010E945D24892B09F46AC1C7561F
:102CA200DF4F88819981AA81C959D0400196A11D1F
:102CB200C756DF4F88839983AA83C959D040A6019A
:102CC200BE016F577F4FC4010E94F92B4FC1612F84
:102CD20070E0950140E050E0C6010E945D24892B1E
:102CE20009F447C1C756DF4F88819981AA81C95922
:102CF200D0400196A11DC756DF4F88839983AA83CE
:102D0200C959D040A601BE016F577F4FC4010E942E
:102D1200672A2CC1612F70E0950140E050E0C601A6
:102D22000E945D24892B09F424C1C756DF4F888194
:102D32009981AA81C959D0409C014A2F2F5F3F4FE8
:102D42004F4FC756DF4F288339834A83C959D04032
:102D5200FC012491A7FD20814BC0950140E050E089
:102D620060EF70E0C6010E945D24892B09F401C165
:102D7200C756DF4F88819981AA81C959D0400196EF
:102D8200A11DC756DF4F88839983AA83C959D040B2
:102D920086E02BE736E040E0F901DE01AD56BF4F99
:102DA200742F0E944138D6012C9111963C911197B3
:102DB20012964C91129713965C91139714966C91FC
:102DC200149715967C91159716968C9116971796CF
:102DD2009C91A0E00E94673851F400E010E0CF55CA
:102DE200DF4F288139814A81C15AD040B9C028E7D2
:102DF200A601BE016F577F4FC4010E94CD1FB6C00E
:102E0200612F70E09501A1014E0D5F1DC6010E9468
:102E12002629AFC0612F70E0A501C6010E94773458
:102E2200892B09F4A6C0C756DF4F88819981AA81F0
:102E3200C959D0409C014A2F2F5F3F4F4F4FC75671
:102E4200DF4F288339834A83C959D040FC0124913A
:102E5200A7FD2081A601BE016F577F4FC4010E94CA
:102E6200103984C0103809F084C0C756DF4F8881FA
:102E72009981AA81C959D0400196A11DC756DF4F39
:102E820088839983AA83C959D040D501ED91FC91D9
:102E92001197CF0102968D939C938081F6018083D6
:102EA2005BC0103809F065C0C756DF4F8881998131
:102EB200AA81C959D0400196A11DC756DF4F888308
:102EC2009983AA83C959D040D501ED91FC911197FC
:102ED200CF0103968D939C9320813181428100E042
:102EE20010E03EC0103809F044C0C756DF4F888159
:102EF2009981AA81C959D0400196A11DC756DF4FB9
:102F020088839983AA83C959D040F601708224C06C
:102F1200D6017C92C256DF4F288139814A81CE592F
:102F2200D040C756DF4F288339834A83C959D040DE
:102F3200CF57DF4F19821882C158D040CB57DF4F8D
:102F420019821882C558D0408FEF9FEFCD57DF4FBF
:102F520099838883C358D04001E010E0462D920146
:102F6200BE016F577F4FC4010E94372B8E0D9F1DEC
:102F720011C0C756DF4F88819981AA81C959D040B3
:102F82000196A11DC756DF4F88839983AA83C95929
:102F9200D040C7017101E80EF91EE214F3044CF4AB
:102FA2008FE490E090932301809322018FEF9FEFB3
:102FB20003C0170121CCC101CD55DF4FE2E10C94D2
:022FC2001A36BD
:102FC4001F93CF93DF930E94353680911301909124
:102FD4001401892B09F03CC18091590190915A0147
:102FE400892BB9F08091570190915801892B89F46C
:102FF4008091550190915601892B59F486E0809374
:10300400100110921F0148E063E574E080E00E9423
:103014008B328091590190915A01892BB9F4809196
:10302400570190915801892B89F080915501909115
:103034005601892B59F486E08093100110921F01E8
:1030440048E06CE574E080E00E948B328091590185
:1030540090915A01892BB9F48091570190915801AC
:10306400892B89F48091550190915601892B59F04F
:1030740086E08093100110921F0148E065E674E039
:1030840080E00E948B3280913F0190914001892B16
:10309400B1F0C6E0C093100110921F0148E06EE643
:1030A40074E080E00E948B32C093100181E0809331
:1030B4001F0148E067E774E080E00E948B32809152
:1030C4003D0190913E010197B1F4C6E0C093100117
:1030D40010921F0148E06EE674E080E00E948B329B
:1030E400C093100181E080931F0148E060E874E020
:1030F40080E00E948B3280913D0190913E010297C5
:10310400B1F4C6E0C093100110921F0148E06EE6CE
:1031140074E080E00E948B32C093100181E08093C0
:103124001F0148E069E874E080E00E948B3287E088
:103134008093100183E080931F0145E062E974E00D
:1031440080E00E948B3285E08093100180931F0100
:1031540049E068E974E080E00E948B3280910701C5
:1031640090910801892BB1F180910E0190910F018A
:10317400019761F481E08093100187E080931F013F
:1031840041E162EA74E080E00E948B3280910E019A
:1031940090910F01029761F481E08093100187E020
:1031A40080931F0141E164EB74E080E00E948B3264
:1031B40080910E0190910F01039761F481E0809357
:1031C400100187E080931F0141E166EC74E080E028
:1031D4000E948B328091070190910801892B81F51F
:1031E400809102018F93809101018F9389E494E08F
:1031F400A0E0AF939F938F93C5E6D1E0DF93CF9385
:103204000E94B23781E08093100117E010931F01F0
:1032140042E168ED74E080E00E948B328EE080939E
:10322400100110931F01BE0180E842E00E948B321E
:103234008DB79EB707960FB6F8949EBF0FBE8DBF8D
:103244000E944D3181E090E09093540180935301AA
:103254008091130190911401019709F044C1809168
:10326400410190914201892B09F43DC1809159019A
:1032740090915A01892BB9F080915701909158018E
:10328400892B89F48091550190915601892B59F429
:1032940086E08093100110921F0148E063E574E01A
:1032A40080E00E948B328091590190915A01892BC0
:1032B400B9F48091570190915801892B89F080913C
:1032C400550190915601892B59F486E080931001A1
:1032D40010921F0148E06CE574E080E00E948B329C
:1032E4008091590190915A01892BB9F48091570129
:1032F40090915801892B89F4809155019091560140
:10330400892B59F086E08093100110921F0148E048
:1033140065E674E080E00E948B3280913F019091D9
:103324004001892BB1F0C6E0C093100110921F0137
:1033340048E06EE674E080E00E948B32C093100196
:1033440081E080931F0148E067E774E080E00E9419
:103354008B3280913D0190913E010197B1F4C6E01A
:10336400C093100110921F0148E06EE674E080E003
:103374000E948B32C093100181E080931F0148E0CA
:1033840060E874E080E00E948B3280913D0190916E
:103394003E010297B1F4C6E0C093100110921F01E0
:1033A40048E06EE674E080E00E948B32C093100126
:1033B40081E080931F0148E069E874E080E00E94A6
:1033C4008B3288E08093100183E080931F0145E0F5
:1033D4006BEE74E080E00E948B3281E080931001F8
:1033E40085E080931F0142E160EF74E080E00E9479
:1033F4008B328091070190910801892BB1F1809162
:103404000E0190910F01019761F481E08093100106
:1034140087E080931F0141E162EA74E080E00E944A
:103424008B3280910E0190910F01029761F481E03B
:103434008093100187E080931F0141E164EB74E005
:1034440080E00E948B3280910E0190910F010397CE
:1034540061F481E08093100187E080931F0141E1D2
:1034640066EC74E080E00E948B32809107019091B9
:103474000801892B81F5809102018F9380910101CC
:103484008F9389E494E0A0E0AF939F938F93C5E674
:10349400D1E0DF93CF930E94B23781E08093100193
:1034A40017E010931F0142E168ED74E080E00E9490
:1034B4008B328EE08093100110931F01BE0180E8CF
:1034C40042E00E948B328DB79EB707960FB6F894F0
:1034D4009EBF0FBE8DBF0E944D3184E090E090935B
:1034E4005401809353018091130190911401019729
:1034F40009F044C18091410190914201892B09F066
:103504003DC18091590190915A01892BB9F0809164
:10351400570190915801892B89F48091550190911C
:103524005601892B59F486E08093100110921F01F3
:1035340048E063E574E080E00E948B328091590199
:1035440090915A01892BB9F48091570190915801B7
:10355400892B89F08091550190915601892B59F45A
:1035640086E08093100110921F0148E06CE574E03E
:1035740080E00E948B328091590190915A01892BED
:10358400B9F48091570190915801892B89F4809165
:10359400550190915601892B59F086E080931001D2
:1035A40010921F0148E065E674E080E00E948B32CF
:1035B40080913F0190914001892BB1F0C6E0C09306
:1035C400100110921F0148E06EE674E080E00E9452
:1035D4008B32C093100181E080931F0148E067E7BC
:1035E40074E080E00E948B3280913D0190913E0115
:1035F4000197B1F4C6E0C093100110921F0148E096
:103604006EE674E080E00E948B32C093100181E08A
:1036140080931F0147E060E874E080E00E948B32F1
:1036240080913D0190913E010297B1F4C6E0C093B0
:10363400100110921F0148E06EE674E080E00E94E1
:103644008B32C093100181E080931F0147E069E849
:1036540074E080E00E948B3288E08093100183E064
:1036640080931F0145E06BEE74E080E00E948B3292
:1036740081E08093100185E080931F0142E163E0C3
:1036840075E080E00E948B328091070190910801DF
:10369400892BB1F180910E0190910F01019761F492
:1036A40081E08093100187E080931F0141E162EA89
:1036B40074E080E00E948B3280910E0190910F01A2
:1036C400029761F481E08093100187E080931F01E9
:1036D40041E164EB74E080E00E948B3280910E0142
:1036E40090910F01039761F481E08093100187E0CA
:1036F40080931F0141E166EC74E080E00E948B320C
:103704008091070190910801892B81F58091020134
:103714008F93809101018F9389E494E0A0E0AF93AB
:103724009F938F93C5E6D1E0DF93CF930E94B23786
:1037340081E08093100117E010931F0142E168EDCE
:1037440074E080E00E948B328EE08093100110932D
:103754001F01BE0180E842E00E948B328DB79EB704
:1037640007960FB6F8949EBF0FBE8DBF0E944D31D1
:1037740084E090E09093540180935301DF91CF91C2
:043784001F910895F4
:10378800AF92BF92CF92DF92EF92FF920F931F9367
:10379800CF93DF9387B1826087B986B1806486B999
:1037A8003699FECFC4B1D5B1D0931601C093150197
:1037B800CE018D5892408838910508F5CE01A0E0D9
:1037C800B0E01F921F921F922AE02F93A12CB12CD8
:1037D80065011DE8E12E12E0F12E00E010E024E181
:1037E80033E040E050E0BC01CD010E94AE2F0F90C5
:1037F8000F900F900F907093120160931101CE01FA
:10380800845092408938910528F5CE01A0E0B0E0B7
:103818001F921F921F9224E12F930F2EFBE0AF2ED1
:10382800B12CC12CD12CF02D14E0E12E12E0F12E98
:1038380000E010E02CE832E040E050E0BC01CD01AF
:103848000E94AE2F0F900F900F900F90709312015F
:1038580060931101CE018E5B91408634910528F565
:10386800CE01A0E0B0E01F921F921F9229E12F9392
:103878000F2EF5E1AF2EB12CC12CD12CF02D1EEB63
:10388800E12EFF24F39400E010E023E032E040E072
:1038980050E0BC01CD010E94AE2F0F900F900F9009
:1038A8000F907093120160931101CE0183589140DB
:1038B800CB9728F5CE01A0E0B0E01F921F921F928F
:1038C8002EE12F930F2EFAE1AF2EB12CC12CD12C63
:1038D800F02D13E8E12EFF24F39400E010E02DEB27
:1038E80031E040E050E0BC01CD010E94AE2F0F90C6
:1038F8000F900F900F907093120160931101CE01F9
:103908008C5191408736910528F5CE01A0E0B0E0B2
:103918001F921F921F9228E22F930F2EFFE1AF2EC6
:10392800B12CC12CD12CF02D1CE1E12EFF24F394F5
:1039380000E010E022E831E040E050E0BC01CD01B9
:103948000E94AE2F0F900F900F900F90709312015E
:1039580060931101CE018C5C91098035910520F5A9
:10396800CE01A0E0B0E01F921F921F9222E32F9396
:103978000F2EF9E2AF2EB12CC12CD12CF02D1CEC5E
:10398800E12EF12C00E010E02BE131E040E050E0C6
:10399800BC01CD010E94AE2F0F900F900F900F9099
:1039A8007093120160931101CE0185599109C7974F
:1039B80020F5CE01A0E0B0E01F921F921F922CE3E9
:1039C8002F930F2EF3E3AF2EB12CC12CD12CF02D59
:1039D80015E9E12EF12C00E010E02BEC30E040E09E
:1039E80050E0BC01CD010E94AE2F0F900F900F90B8
:1039F8000F907093120160931101CE0180579109C5
:103A0800859720F5CE01A0E0B0E01F921F921F928B
:103A180026E42F930F2EFDE3AF2EB12CC12CD12C11
:103A2800F02D10E7E12EF12C00E010E024E930E061
:103A380040E050E0BC01CD010E94AE2F0F900F90E6
:103A48000F900F907093120160931101CE0183556E
:103A580091094D9720F5CE01A0E0B0E01F921F928A
:103A68001F9220E52F930F2EF7E4AF2EB12CC12C17
:103A7800D12CF02D13E5E12EF12C00E010E02FE61B
:103A880030E040E050E0BC01CD010E94AE2F0F9025
:103A98000F900F900F907093120160931101CE0157
:103AA80081549109429720F5CE01A0E0B0E01F9221
:103AB8001F921F922AE52F930F2EF1E5AF2EB12CFE
:103AC800C12CD12CF02D11E4E12EF12C00E010E0F6
:103AD80022E530E040E050E0BC01CD010E94AE2F6D
:103AE8000F900F900F900F90709312016093110137
:103AF800CE01C5970C9710F5BE0180E090E01F92AB
:103B08001F921F9223E62F930F2EFBE5AF2EB12CA9
:103B1800C12CD12CF02D15E3E12EF12C00E010E0A2
:103B280020E430E040E050E00E94AE2F0F900F906C
:103B38000F900F90709312016093110112E110938E
:103B4800100110921F0142E06CE474E080E00E94D2
:103B58008B32809112018F93809111018F9389E4A8
:103B680094E0A0E0AF939F938F93C7E3D1E0DF93F6
:103B7800CF930E94B2371093100110921F01BE011B
:103B880080E844E00E948B3287B18D7F87B986B187
:103B98008F7B86B98DB79EB707960FB6F8949EBFF0
:103BA8000FBE8DBFDF91CF911F910F91FF90EF90C6
:0A3BB800DF90CF90BF90AF9008950A
:103BC200ACE1B0E0E7EEFDE10C94F0341B01482ECD
:103BD200598B488B3C8F2B8F0A8F253231051CF471
:103BE2002130310539F486E190E0909323018093EE
:103BF2002201A3C161157105810509F49EC1FB0172
:103C0200149147FC1081112309F497C1842C3101CE
:103C1200103239F0812F012E000C990B099705976C
:103C220048F4FFEF6F1A7F0A8F0AF301149187FCA1
:103C32001081EECF1D3259F42FEF621A720A820AF6
:103C4200F301149187FC108131E03E870BC01B32D7
:103C520041F48FEF681A780A880AF301149187FCFD
:103C620010811E86103309F052C0E82C63019FEFC9
:103C7200C91AD90AE90AF6011491E7FC10818B8D61
:103C82009C8D8F7E892B09F044C0812F8F7D8835D2
:103C9200A9F5E2E06E0E711C811CF301149187FC00
:103CA2001081812F8062082E000C990B8156910998
:103CB200212F012E000C330B3C8F2B8F4A9738F0AB
:103CC2008B8D9C8D0E949E37892B41F049C18B8D33
:103CD2009C8D0E9492388753803194F316014E2CAA
:103CE20088899989892B09F02DC11982512C912C2F
:103CF2001A821B821C821D821E8242C1EB8DFC8DA8
:103D0200EF2B09F435C136018E2C01E00DC000E025
:103D120003C036018E2C01E02B8D3C8D232B21F428
:103D22008AE090E09C8F8B8F9A8D992399F0EE8593
:103D3200E1111FC0FFEFFA8B2FEF2B8B3FEF3C8B74
:103D42008FEF8D8B9FEF9E8BEFEFEF8BF88F2FE72F
:103D5200298F18C03FEF3A8B8FEF8B8B9FEF9C8B95
:103D6200EFEFED8BFFEFFE8B2FEF2F8B388F898FCD
:103D720009C01A8A1B8A1C8A1D8A1E8A1F8A188EEB
:103D820090E8998F1F861982512C912C1A821B82DE
:103D92001C821D821E82EC8DEE0FEE0BE887212F16
:103DA2002062022E000C330B21563109812F012E85
:103DB200000C990B2A31310528F40E94923887535E
:103DC2008F8306C0C0970A9708F096C010531F83CE
:103DD200FF818F2FFF0F990B2B8D3C8D821793073D
:103DE2000CF08AC03F85311163C0A980B52CC92C63
:103DF200DA80EB80FC800D811E812B8D3C8D488505
:103E0200542F642F742F842F942F0E94452D590113
:103E12006A017B018C019F81990F990B2F81392FA8
:103E2200492F592F692F792F892F0E94AD382F835F
:103E320039874A875B876C877D87B82FA92F2981AD
:103E4200352D492D5A816B817C818D819E81AF8078
:103E5200B984CA84DB84EC84FD840B2F1A2F0E9460
:103E6200B63809F070F48A8D882381F12A893B895A
:103E72004C895D896E897F89888D998D0E94B638BB
:103E820028F5E2E2F0E0F0932301E0932201FA89BF
:103E9200FF832B8929873C893A878D898B879E8965
:103EA2009C87EF89ED87B88DA98DF1E0FF870EC061
:103EB20029812F8359869A863A813B878B818C8709
:103EC2009C819D87BD81AE81E1E0EF87FFEF6F1A94
:103ED2007F0A8F0AF301149187FC108101E02F8180
:103EE200298359849A843B853A838C858B839D856B
:103EF2009C83BD83AE8353CFEF85E11115C0FE8550
:103F0200FF2391F02981352D492D5A816B817C81C6
:103F12008D819E810E94F7372983532E942E5A83D6
:103F22006B837C838D839E8328893989232B41F17E
:103F3200002381F01301482C0DC0E889F989EF2B89
:103F420009F4D3CE1982512C912C1A821B821C8225
:103F52001D821E82E889F98920823182428210C044
:103F6200E82C630100E020E130E03C8F2B8F05C09C
:103F720001E088E090E09C8F8B8F36018E2CD4CEAE
:103F82002981352D492D5A816B817C818D819E81BC
:083F92006C96E2E10C941A3672
:103F9A00A4E1B0E0E3EDFFE10C94F03498878F835D
:103FAA007A8369835C8B4B8B122FDB011296ED911E
:103FBA00FC91139714962D913C9115973E832D836E
:103FCA00ED90FC90119716962D903C901797F7FD5F
:103FDA0003C0E894E1F802C0E1E0F0E0C7018071B3
:103FEA0099279A878987E4FE1FC0AB89BC892C91DF
:103FFA0011963C91119712964C91129713965C91D7
:10400A00139714966C91149715967C91159716969A
:10401A008C91169717969C91A0E00E94673821F020
:10402A008D819E81029702C08D819E8197012870A1
:10403A0033273C872B87E3FC0197AB89BC894C90DB
:10404A0011965C90119712966C90129713967C9029
:10405A00139714968C90149715969C90159716960C
:10406A00AC9016971796BC90A981BA811896CD90F4
:10407A00DC901997B1E0CB1AD108D101AC0DBD1D66
:10408A001C929C838B839F01281B390B3E872D87AB
:10409A00C70182709927988B8F87812F012E000C78
:1040AA00990BDC01A154B109BA8BA98B32E0C31672
:1040BA00D10434F489859A85892B09F04CC073C0E0
:1040CA009201A301B401C501A0E00E94673881F101
:1040DA00B1E0CB1AD108C2018F7099278A309105B5
:1040EA0014F4C09602C0895A9F4FE989FA897A97CF
:1040FA0048F49C012062215631092A31310510F415
:10410A000E949238F101EC0DFD1D80832B813C81C8
:10411A00215031093C832B839201A301B401C501CB
:10412A0004E00E94B83429013A014B015C01BECF78
:10413A008D859E85AB81BC818A0F9B1F1816190637
:10414A003CF21A161B060CF0B5CFEF85F889EF2B57
:10415A0009F0BECFAFCFAB89BC892C9111963C91A7
:10416A00119712964C91129713965C911397149685
:10417A006C91149715967C91159716968C911697B3
:10418A0017969C91A0E00E94673869F0F101EC0D46
:10419A00FD1D31971083B2E0CB1AD108F101EC0D65
:1041AA00FD1D80E38083EB85FC85EF2B41F0F1E078
:1041BA00CF1AD108F101EC0DFD1D80E28083A9819F
:1041CA00BA8118962D913C911997215031092C19D1
:1041DA003D09C20CD31CA60160E80D811E818F81A6
:1041EA0098850E94AB279C01EF81F8858081918197
:1041FA0090FF09C0A981BA8112968D919C9113975B
:10420A00821793070CF4C9016496E2E10C941A36FA
:10421A00A8E0B0E0E3E1F1E20C94F0344C017887D5
:10422A006F83FA015901848195819A838983E08495
:10423A00F18426803780C4010E94EF33F501208182
:10424A003181820F931F9183808389819A81892B7F
:10425A0021F4F7013197FA83E9834AE0C42ED12C7D
:10426A00612C712C00E010E0C70101979E838D83B9
:10427A0089819A81081719070CF097C0ED81FE8190
:10428A000E171F070CF091C0C4010E94A32C7C01D9
:10429A009FEFE916F90639F4101611060CF485C0D9
:1042AA008FEF9FEFA4C001151105B1F4EBE2EE16F2
:1042BA00F10421F0FDE2EF16F10471F4F101E0825C
:1042CA00F5018081918101969183808366246394AC
:1042DA00712C01E010E0CCCFC101800F911F9C83AB
:1042EA008B8306151705C1F538019FEF691A790AFC
:1042FA00EAE0CE16D10441F4F0E3EF16F10451F5E9
:10430A0028E0C22ED12C28C088E0C816D10411F5A5
:10431A00C701806288379105E9F4C4010E94A32C81
:10432A002C01B4010E949734C2010E948A37892B5A
:10433A0071F0EB81FC81E0828301F501808191813A
:10434A0001969183808390E1C92ED12C91CFB4013B
:10435A00C20111C0612C712CC701C0970A9770F075
:10436A00F0E1CF16D10429F4C7010E948A37892BBC
:10437A0081F4B401C7010E94973417C088E0C816B7
:10438A00D10439F498E3E916F1041CF08AE0C82E46
:10439A00D12CEB81FC81E0820F5F1F4FF5018081F8
:1043AA00918101969183808363CFF101E00FF11F20
:1043BA001082B10180E8FAE0CF16D10439F42AE07C
:1043CA0030E040E050E00E94EA3805C0960140E043
:1043DA0050E00E94F038EF81F885208331834283D0
:1043EA005383648375838683978380E090E028965D
:0643FA00E2E10C941A360A
:104400000E94353683E090E09093540180935301ED
:1044100081E090E0909314018093130190936001E8
:1044200080935F018DE08093100110921F0141E0A5
:104430006FE474E080E00E948B3286E0809310018C
:1044400010921F0141E061E574E080E00E948B3230
:1044500087E08093100110921F0146E06DE675E041
:1044600080E00E948B328091590190915A01892BF2
:1044700041F18091570190915801892B11F580915C
:10448000550190915601892BE1F485E190E09093DC
:104490005E0180935D011092100183E080931F0103
:1044A00048E064E775E080E00E948B3210921001D2
:1044B00085E080931F0145E06DE775E080E00E9494
:1044C0008B328091590190915A01892B99F58091F5
:1044D000570190915801892B69F180915501909174
:1044E0005601892B39F585E190E090935E01809328
:1044F0005D011092100183E080931F0148E064E7A2
:1045000075E080E00E948B321092100185E080936C
:104510001F0146E063E875E080E00E948B32109254
:10452000100187E080931F0145E06DE775E080E0B2
:104530000E948B328091590190915A01892B61F42C
:104540008091570190915801892B31F48091550148
:1045500090915601892B31F480913F019091400157
:10456000892B81F083E090E090935E0180935D0160
:104570001092100180931F0146E06AE875E080E028
:104580000E948B3280913D0190913E0101970297EC
:1045900078F410925C0110925B011092100183E09C
:1045A00080931F0140E161E975E080E00E948B3259
:0245B00008956C
:1045B200CF93DF930E9435368091070190910801D5
:1045C200892B91F51092100182E080931F0144E142
:1045D20066E175E080E00E948B32809102018F9348
:1045E200809101018F9389E494E0A0E0AF939F93BF
:1045F2008F93C3E6D1E0DF93CF930E94B23789E075
:104602008093100184E080931F01BE0180E842E0A4
:104612000E948B320E946B308DB79EB707960FB601
:10462200F8949EBF0FBE8DBF809107019091080143
:10463200892B09F443C01092100182E080931F017C
:1046420044E166E175E080E00E948B3280910E01C8
:1046520090910F01019761F486E08093100184E04C
:1046620080931F0148E06BE275E080E00E948B328C
:1046720080910E0190910F01029761F486E0809380
:10468200100184E080931F0148E064E375E080E05C
:104692000E948B3280910E0190910F01039761F479
:1046A20086E08093100184E080931F0148E06DE36F
:1046B20075E080E00E948B320E946B30809117017E
:1046C20090911801803591057CF51092100186E0D9
:1046D20080931F0142E166E475E080E00E948B3224
:1046E2008091070190910801892B61F486E0809303
:1046F200100187E080931F0149E069E575E080E0E1
:104702000E948B328091070190910801892B61F000
:1047120086E08093100187E080931F0149E063E601
:1047220075E080E00E948B3282E090E09093540129
:0A47320080935301DF91CF910895A9
:10473C00ADE0B0E0E4EAF3E20C94F0349A878987B8
:10474C007C836B83FA01DB011296CD90DC9013977E
:10475C0014968D919C9115979E838D83ED90FC9072
:10476C001197FA82E98216960D90BC91A02DB8870C
:10477C00AF83208031804280538064807580868036
:10478C0097808101B42DF52DE62D7B868C869D8638
:10479C009101A201B301C401A0E00E9467384CF45E
:1047AC000E94F7378901B42FF52FE62F7B878C8772
:1047BC009D87D7FC04C0E894E1F8FA82E982910164
:1047CC00A201B301C401A0E0ED80FE800E94673815
:1047DC001CF0898182FF04C081E0E81AF10805C051
:1047EC0083FF03C091E0E91AF108CE0101965C0148
:1047FC008AE0C82ED12C2B2F3F2F4E2F5B856C853A
:10480C007D858B819C810E946B26FC019101A2010C
:10481C00B301C401A0E00E9467381CF0898182FFBB
:10482C0012C031970F8118850E0F1F1F9101A20125
:10483C00B301C401A0E00E94673814F08BE201C000
:10484C008DE2D80108C083FF07C03197AF81B885CE
:10485C00AE0FBF1F80E28C93E980FA80AB81BC81E4
:10486C0018962D913C911997215031092E1B3F0B15
:10487C008F819885E80FF91FAF0160E80D811E81CB
:10488C0089859A850E94AB279C01A985BA858D9153
:10489C009C9190FF07C0EB81FC81828193818217F0
:0E48AC0093070CF4C9012D96E2E10C941A3624
:1048BA000F931F93CF93DF93FC01D90168387105D9
:1048CA0031F194F461387105B1F12CF46038710555
:1048DA0009F478C09FC06238710509F459C0643878
:1048EA00710509F46FC096C0603A710509F448C0B1
:1048FA002CF46039710509F44BC08CC0603C710519
:10490A0009F476C0603F710509F472C083C0CD9185
:10491A00DC911197CE0102968D939C93452B39F029
:10492A009881892F880F880B908381835BC0888147
:10493A008083118268C0CD91DC911197CE010496D3
:10494A008D939C93452B99F088819981AA81BB818B
:10495A00AC01BD01770F440B542FBA0180839183B8
:10496A00A283B383448345834683478328C008814F
:10497A0019812A813B81008311832283338345C0B5
:10498A00CD91DC911197CE0102968D939C9323C011
:10499A00CD91DC911197CE0108968D939C937881E5
:1049AA0069815A814B813C812D819E818F817083DF
:1049BA00618352834383348325839683878381E08B
:1049CA0090E02AC0CD91DC911197CE0102968D9389
:1049DA009C93452BA1F099812881892F880F880BF8
:1049EA002083918382838383848385838683E6CF2E
:1049FA00CD91DC911197CE0102968D939C930881FB
:104A0A0019810083118312821382148215821682FD
:104A1A001782D5CF80E090E0DF91CF911F910F915F
:024A2A000895ED
:104A2C001F920F920FB60F9211242F938F939F9377
:104A3C00EF93FF9382B7885082BF809169018823DE
:104A4C0089F180916801815080936801809168019F
:104A5C00811128C0809161019091620180FF04C096
:104A6C0088B3886088BB03C088B3877F88BB80917C
:104A7C006101909162019695879590936201809364
:104A8C00610183E08093680180916701815080937C
:104A9C00670180916701811105C01092690188B38B
:104AAC00886088BB80916D0181115EC080916E0120
:104ABC008823F1F080916B01815080936B018111FF
:104ACC0053C010926E0110926F0180913B01E091E6
:104ADC007101F0E0EC5DFE4F8083809171018F5F7E
:104AEC0080937101883008F43FC0109271013CC072
:104AFC0080916F01811112C0B09936C081E0809312
:104B0C006F0110923C0110923B0194E090936B0169
:104B1C009AE090936A0180936C0126C080916B019E
:104B2C00815080936B0181111FC083E080936B01D6
:104B3C00B09B0BC020916C0180913B0190913C018A
:104B4C00822B90933C0180933B0180916C01880FE8
:104B5C0080936C0180916A01815080936A0181116C
:104B6C0003C081E080936E01FF91EF919F918F9133
:0C4B7C002F910F900FBE0F901F90189506
:104B8800A4E0B0E0EAECF5E20C94F0347C017C831C
:104B98006B83FA01590144805580C084D1846680B2
:104BA80077800E94EF33F50120813181820F931FB6
:104BB800918380834114510421F42601F1E04F1AB6
:104BC8005108130100E010E0C60101979A83898318
:104BD800041515050CF042C089819A810817190738
:104BE800ECF5C7010E94A32C6C019FEFC916D906EA
:104BF80031F41016110694F18FEF9FEF64C0C601CF
:104C08000E948A37892BF1F401301105B1F4C601ED
:104C18000E94C7388837910581F4F3018081803379
:104C280061F4C7010E94A32C4C01B7010E9497347C
:104C3800C4010E948A37892B29F4B701C6010E9452
:104C480097340CC0F101C1921F010F5F1F4FF5018E
:104C580080819181019691838083BACFD301A00F7F
:104C6800B11F1C92033011053CF4EB81FC811082CA
:104C780011821282138221C0F301329600E010E003
:104C88009801819190ED980F9A3018F0806299EA16
:104C9800980F84E0000F111F221F331F8A95D1F748
:104CA800090F111D211D311DAE17BF0751F7EB81EB
:104CB800FC81008311832283338314821582168238
:0E4CC800178280E090E02496E2E10C941A3608
:104CD600A2E1B0E0E1E7F6E20C94F034FC010A8BC5
:104CE6001B832C83732E642E552E462E7D83CC86F5
:104CF600D886BF82AE82868197819B878A87D501B7
:104D06004D915C91228133818085918501971C01AB
:104D160037FF02C021E030E0EA85FB85E80FF91F86
:104D260010824701E1E0F0E0FA83E983C9018E19B8
:104D36009F099E878D87DA01A270BB27B88BAF8744
:104D4600B885BB0FBB0BB98B1214130474F0A98181
:104D5600BA81AB2B09F05CC0AE81BF818D919C916D
:104D660011978F7E8D939C9353C02A893B814C81EA
:104D7600572D662D752D842D9D81A0E00E946738E4
:104D8600B1F1E1E02E1A3108FC85F987AF2EB8841F
:104D9600C988DC2CEC2CFC2C0C2D1C2D2A893B8183
:104DA6004C81572D662D752D842D9D810E9433389B
:104DB600C90129839A83EA85FB85E20DF31D805D8F
:104DC600808381E0881A91082A893B814C81572D7E
:104DD600662D752D842D9D810E9435382A8B3B8347
:104DE6004C83752E662E572E482E9D83ADCF8D850E
:104DF6009E85880D991D181619061CF2181419049B
:104E06000CF0A5CFEF85F889EF2B09F0BACF9FCF2D
:0A4E1600C1016296E2E10C941A3625
:104E2000CF93DF93FC01D9016838710521F18CF42F
:104E30006138710561F12CF46038710509F476C0B0
:104E400085C062387105B1F16438710509F46EC02E
:104E50007DC0603A710509F469C024F460397105B8
:104E600049F174C0603C710509F460C0603F710590
:104E700009F45CC06BC0CD91DC911197CE01029614
:104E80008D939C93A881B98180818C935CC0CD91D6
:104E9000DC911197CE0102968D939C93A881B981E4
:104EA00040815181628173814D935D936D937C93B9
:104EB000139749C0CD91DC911197CE0102968D9345
:104EC0009C93452B99F0708161815281438134819B
:104ED000258196818781E881F9817083618352837E
:104EE000438334832583968387832DC0A881B9812A
:104EF00070816181528143813481258196818781CE
:104F00007C9311966C93119712965C93129713965B
:104F10004C93139714963C93149715962C931597CE
:104F200016969C93169717968C930DC0CD91DC9195
:104F30001197CE0102968D939C93A881B9818081AF
:104F400091818D939C9381E090E002C080E090E09D
:064F5000DF91CF910895EE
:104F56002F923F924F926F927F928F92AF92BF9213
:104F6600CF92DF92EF92FF920F931F93CF93DF932F
:104F7600CDB7DEB766970FB6F894DEBF0FBECDBFCE
:104F86005C013A01862E6901C701817099279C8BC5
:104F96008B8BE0FC1DC020173107D4F47801EC1888
:104FA600FD08FE8AED8AA70191E1E916F10410F0E9
:104FB60040E150E060E270E0CE0101969A8B898B69
:104FC6000E94893889899A891C0120E8422E0BC0E3
:104FD6009601682DA301C5010E942332C016D10691
:104FE600ECF2C60125C090E1E916F10458F020E183
:104FF60030E0642DA101C5010E94233280E1E81A48
:10500600F108F1CF2D893E892F70332789899A8936
:10501600AC0160E8C5010E9423328B899C89892BEB
:1050260031F49601682DA301C5010E942332C801FF
:1050360066960FB6F894DEBF0FBECDBFDF91CF9157
:105046001F910F91FF90EF90DF90CF90BF90AF90A0
:0E5056008F907F906F904F903F902F90089515
:105064000F931F93CF93DF93C82F162F60911F01C7
:10507400809110010E940A37082FC03910F480E291
:1050840001C080E6D0E0C81BD109CE01880F991F6A
:10509400880F991FC80FD91FCE010D2E000CAA0B23
:1050A40082509F4FAF4FFC018491A7FD8081602FF8
:1050B40081270E94F436CE010196092E000CAA0B1A
:1050C40082509F4FAF4FFC018491A7FD8081602FD8
:1050D40081270E94F436CE010296092E000CAA0BF9
:1050E40082509F4FAF4FFC018491A7FD8081602FB8
:1050F40081270E94F436CE010396092E000CAA0BD8
:1051040082509F4FAF4FFC018491A7FD8081602F97
:1051140081270E94F436CE010496092E000CAA0BB6
:1051240082509F4FAF4FFC018491A7FD8081602F77
:1051340081270E94F436602F812F0E94F4368091DB
:105144001001833120F48F5F8093100109C0109205
:10515400100180911F01883018F48F5F80931F0124
:0A516400DF91CF911F910F91089584
:10516E0010C00E94D63858F00E94CF3840F029F473
:10517E005F3F29F00C94E43851110C94DE380C94F6
:10518E000D390E94123468F39923B1F3552391F32C
:10519E00951B550BBB27AA2762177307840738F098
:1051AE009F5F5F4F220F331F441FAA1FA9F335D0F5
:1051BE000E2E3AF0E0E832D091505040E695001CA9
:1051CE00CAF72BD0FE2F29D0660F771F881FBB1F63
:1051DE00261737074807AB07B0E809F0BB0B802D41
:1051EE00BF01FF2793585F4F3AF09E3F510578F06D
:1051FE000C94E4380C94DE385F3FE4F3983ED4F31D
:10520E00869577956795B795F7959F5FC9F7880F40
:10521E00911D9695879597F90895E1E0660F771F92
:10522E00881FBB1F621773078407BA0720F0621B23
:0E523E00730B840BBA0BEE1F88F7E0950895F2
:10524C00CF93DF93DC01F90164387105D9F164F473
:10525C006138710521F16238710509F440C060387C
:10526C00710509F054C02EC060397105C1F184F488
:10527C006838710509F04BC0C081D181CE0102960E
:10528C0091838083E881F981ED93FC9340833CC04A
:10529C00603A7105B9F0603C7105A1F038C0C0816D
:1052AC00D181CE01029691838083E881F981ED93BF
:1052BC00FC93052E000C660B770B408351836283A5
:1052CC00738322C0C081D181CE01029691838083E9
:1052DC00E881F981ED93FC935183408315C0C08123
:1052EC00D181CE01029691838083E881F981ED937F
:1052FC00FC9351834083852F880F880B8283838393
:10530C00848385838683878381E090E002C080E07C
:08531C0090E0DF91CF910895AC
:10532400A0E0B0E0E8E9F9E20C94F2344C01EB01BE
:10533400FA016901A480B58060847184E680F780F5
:105344000E94EF33F60120813181820F931F9183F4
:105354008083A114B10421F45301F1E0AF1AB10820
:10536400270100E010E021E0621A71080A151B050C
:1053740024F5061517050CF5C4010E94A32C8F3FD4
:10538400EFEF9E0721F410161106BCF02DC09C010E
:10539400205331092830310520F0B4010E9497349C
:1053A4000CC0F20181932F010F5F1F4FF601808122
:1053B4009181019691838083D9CFF701E00FF11F8A
:1053C4001082B70180E828E030E040E050E00E941D
:1053D400F038288339834A835B836C837D838E838F
:1053E4009F8380E090E002C08FEF9FEFCDB7DEB7E0
:0653F400E0E10C941C3600
:1053FA00A0E0B0E0E3E0FAE20C94F6345C01FB01D1
:10540A004A01C480D58000851185E680F7800E9414
:10541A00EF33F40120813181820F931F91838083BE
:10542A00C114D10421F46801F1E0CF1AD108C0E017
:10543A00D0E001501109CC15DD05BCF5C017D10724
:10544A00A4F5C5010E94A32C8F3F2FEF920721F4E8
:10545A001C161D0654F12FC0209789F48B32910532
:10546A0019F08D32910559F4F7018083F401808196
:10547A009181019691838083C1E0D0E0DCCF9C01C9
:10548A00205331092A30310520F0B5010E949734A2
:10549A000CC0F701EC0FFD1F80832196F401808177
:1054AA009181019691838083C6CFCE0DDF1D18822C
:1054BA0080E090E002C08FEF9FEFCDB7DEB7ECE05F
:0454CA000C942036E8
:1054CE00A2E0B0E0EDE6FAE20C94F0341C014B01E0
:1054DE00FA01DB0112962D913C91139714964D9083
:1054EE005C9015978D919C9111979A83898316964E
:1054FE006D907C90179737FD03C08D7F9A838983BB
:10550E0000811181228133814481558166817781A9
:10551E00FE0131965F0188E0C82ED12C7201C401C4
:10552E000E946B26298124FF06C00197F301E80F24
:10553E00F91F20E32083298123FF06C00197F30181
:10554E00E80FF91F20E22083E980FA80D401189633
:10555E002D913C91199721503109281B390B860D3D
:10556E00971DAC0160E88201C1010E94AB279C012E
:10557E00F1018081918190FF08C0D40112968D9126
:10558E009C911397821793070CF4C9012296E2E1BE
:04559E000C941A3619
:1055A200A0E0B0E0E7EDFAE20C94F4346C01EB0118
:1055B2005A017901452B49F00E94EF33F70120810E
:1055C2003181820F931F918380836C807D8048019B
:1055D200C0E0D0E06114710449F5C6010E94A32C19
:1055E2008F3FFFEF9F0731F4209789F101151105D5
:1055F20009F527C0A114B10449F08032910551F197
:105602009C01295031092530310520F10115110580
:1056120011F0F40180832196F70180819181019636
:1056220091838083FFEF8F1A9F0AD4CFC615D705C7
:10563200A4F2DCCFA114B10421F0F801EC0FFD1F9C
:10564200108281E090E0CD2B61F480E00AC08FEF00
:105652009FEF07C0B6010E9497340115110589F327
:0C566200ECCFCDB7DEB7EEE00C941E36A6
:10566E002F923F924F926F927F928F92AF92BF92F4
:10567E00CF92DF92EF92FF920F931F93CF93DF9310
:10568E00CDB7DEB727970FB6F894DEBF0FBECDBFEE
:10569E006C017B013901842E980184E7282E86E067
:1056AE00382E80E0482E87E0F101AE014F5F5F4F4C
:1056BE00DA01742D0E944138F70102811381A48012
:1056CE00B580E080F18061147104810419F43A010F
:1056DE00F0E88F2E2115310529F4882DB3010E9493
:1056EE004C379C0117FD04C00217130708F49801EC
:1056FE008501682DA301C6010E94AB2727960FB620
:10570E00F894DEBF0FBECDBFDF91CF911F910F91E9
:10571E00FF90EF90DF90CF90BF90AF908F907F90E3
:0A572E006F904F903F902F90089568
:105738001F920F920FB60F9211242F933F934F93FE
:105748005F936F937F938F939F93AF93BF93EF93E1
:10575800FF930E94952D0E94C41B80915D0190913A
:105768005E01019790935E0180935D01892B31F46E
:1057780087E190E090935E0180935D018091130131
:1057880090911401892B71F080914101909142010F
:10579800892B41F080915F0190916001892B11F074
:1057A8000E94332E80915B0190915C010196909349
:1057B8005C0180935B0180319E4030F080E19EE087
:1057C80090935C0180935B01FF91EF91BF91AF9142
:1057D8009F918F917F916F915F914F913F912F9101
:0A57E8000F900FBE0F901F90189550
:1057F200A2E0B0E0EFEFFBE20C94F0343C014B018D
:10580200FA01DB0112962D913C91139714964D905B
:105812005C9015978D919C9111979A838983169626
:105822002D903C90179737FD03C08D7F9A83898313
:105832000081118122813381448155816681778182
:10584200FE0131965F018AE0C82ED12C7201C4019B
:105852000E946B26E980FA80D40118962D913C9122
:10586200199721503109281B390B820D931DAC0168
:1058720060E88201C3010E94AB279C01F301808191
:10588200918190FF08C0D40112968D919C9113973B
:10589200821793070CF4C9012296E2E10C941A369E
:1058A2006F927F928F92EF92FF920F931F93CF93FB
:1058B200DF93CDB7DEB761970FB6F894DEBF0FBEA8
:1058C200CDBFFE01319651E1DF011D925A95E9F7F4
:1058D200A2E0B1E0BA83A9839C838B8377FF09C0DE
:1058E2008FE490E090932301809322018FEF9FEF4A
:1058F20019C03901842E7C01615071097F836E8346
:105902009801682DA301CF010E94983648855985D8
:105912002E813F814217530708F49A01F701E20FE3
:10592200F31F108261960FB6F894DEBF0FBECDBF93
:10593200DF91CF911F910F91FF90EF908F907F9009
:045942006F900895C5
:10594600CF93DF93DC011B968D919C911C9700975A
:10595600B9F001971C969C938E931B97FD01E80F57
:10596600F91F818517962D913C9118972F5F3F4F10
:1059760018963C932E931797082E000C990B2EC061
:105986008D919C91119790FF16C012962D913D9185
:105996004C911497F901849147FD8081082E000CE3
:1059A600990B0097C9F02F5F3F4F4F4F12962D93DB
:1059B6003D934C930FC01F96ED91FC9150973097F5
:1059C60059F0ED01CD0109952F8138852F5F3F4FA5
:1059D60038872F83992702C08FEF9FEFDF91CF91F2
:0259E600089522
:1059E80088249924F401E401B0E49F93AA279A1526
:1059F8008B049C04ED05FE05CF05D007A10798F49C
:105A0800AD2FDC2FCF2FFE2FE92D982C892E982F24
:105A1800872F762F652F542F432F322F2227B850E8
:105A280031F7BF9127C01B2EBF91BB27220F331F11
:105A3800441F551F661F771F881F991F881C991CB4
:105A4800EE1FFF1FCC1FDD1FAA1FBB1F8A149B045C
:105A5800EC05FD05CE05DF05A007B10748F08A185B
:105A68009B08EC09FD09CE09DF09A00BB10B2160E9
:105A78001A94E1F62EF49401AF01BE01CD01000C99
:025A880008957F
:105A8A00DF93CF931F930F939A9DF02D219FF00DD3
